:020000040800F2
:100000000805002091150008990800089B080008C1
:100010009D0800089F080008A108000800000000D3
:10002000000000000000000000000000A30800081D
:10003000A508000800000000A7080008A90800089B
:10004000A9150008AD150008B1150008B515000880
:10005000B9150008BD150008C1150008C515000830
:10006000C9150008CD150008D1150008D5150008E0
:10007000D9150008DD150008E1150008E515000890
:10008000E9150008ED150008F1150008F515000840
:10009000F9150008FD1500080116000805160008EE
:1000A000091600080D16000811160008151600089C
:1000B000191600081D16000800000000211600088F
:1000C00025160008000000000000000029160008A6
:1000D00000000000AD0800082D1600080000000018
:1000E00031160008351600083916000838B5040026
:1000F00001D1012032BD00F01BF808B900F01CF856
:1001000000F01FF800F027F8FFE7416100F001F868
:1001100032BD2068C16841F40051C16000206860B0
:10012000202169702020A8700021616300207047A1
:1001300004F140056878704700212970204600F0DE
:10014000CCBA242068702068C16821F40051C160D5
:10015000204600F069BA2068016921F490410161EC
:100160002068416921F02A01704790F84130202B26
:1001700012D109B1130001D10120704701628284BC
:10018000C28400214164212280F841200068C168B6
:1001900041F0800100F0A6B90220704710B500F1CF
:1001A00030039C7C202C0AD109B1140001D101201C
:1001B00010BD00241C60BDE8104000F07BB9022097
:1001C00010BD216801F1140252E8001F206800F1FF
:1001D000140321F0400143E8001000287047F8B5EF
:1001E000044625682A6828460146C6684B6912F00D
:1001F0000F0F02F0200106F0200007D1002918BFE0
:1002000000285DD02046BDE8F240A5E1DF0702D41A
:1002100016F4907F54D0D50705D5F60503D5656C47
:1002200045F001056564550705D5DE0703D5656C06
:1002300045F002056564950705D5DE0703D5656CB5
:1002400045F004056564120706D508B9DA0703D539
:10025000636C43F008036364626C002A2FD00029AA
:100260001EBF0028204600F077F920684069616CC5
:100270000A0701D440061DD5204600F044F9206845
:100280004169480611D5FFF79CFFFCD1E06B60B1D6
:100290000FF2B5214163E06B00F08BFA00280ED01D
:1002A000E06B416BBDE8F44008472046BDE8F240F2
:1002B00000F0DABA204600F0D7FA00206064F1BD01
:1002C000206B012804F1410340F09180D00600D555
:1002D000F10640F18C80002200922968009122688A
:1002E00050680090009920684269500642D5E16B41
:1002F0000868406880B20028E1D0A28D9042DEDA22
:10030000E085886920282DD0216801F10C0050E893
:10031000001F226802F10C0521F4807145E80010ED
:100320000028F1D100F0A2F8490800F114054900B5
:1003300045E800100028F5D100F098F800F1140508
:1003400021F0400145E800100028F5D12020587028
:100350000021216300F090F800F0C7F8FAD1E06BBB
:1003600000F002FA02206063A18DE08D091A89B2C3
:10037000204638E0A08DE18D411AE08D00281CBF99
:1003800088B2002871D02246106800F10C0454E8AD
:10039000004F00F10C0624F4907446E80040002859
:1003A000F2D1106800F1140454E8004F640800F121
:1003B0001406640046E800400028F2D1202058705E
:1003C00000231363106800F10C0353E8003F00F1B1
:1003D0000C0523F0100345E800300028F2D102207C
:1003E000506389B21046BDE8F44000F03EBA1006F2
:1003F0002BD5310629D51878212836D1A068B0F53B
:10040000805F04BF2069002809D1206A01882A463C
:10041000C1F308015160206A811C216205E0206A55
:10042000411C2162226800785060E08C401EE0840C
:1004300080B2D0B92068C16821F08001C160206815
:10044000C16841F04001C160F1BD50060DD5710693
:100450000BD52846C16821F04001C160204620210B
:100460001970BDE8F24000F001BAF1BD206800F15A
:10047000140151E8001F7047206800F10C0151E899
:10048000001F00F10C037047026802F10C0151E8F3
:10049000002F036803F10C047047016801F1140296
:1004A00052E8002F520801F11404520044E80021E0
:1004B0000029704781628285C28500214164222221
:1004C00080F84220016921B10168CA6842F4807253
:1004D000CA6001684A6942F001024A610068C16865
:1004E00041F02001C1600020704721F0100143E875
:1004F000001000287047016801F10C0252E8002F3B
:1005000001F10C04704710B5FFF7F5FF22F490726B
:1005100000F016F8F8D1FFF7C0FFFCD1016B0129FC
:1005200006D1FFF7B1FF22F0100200F009F8F8D170
:10053000202180F842100022026310BD22F4807254
:1005400044E8002100297047406A0021C18500224B
:10055000C28400F089B900001CB590F8421022292D
:1005600052D18168826AB1F5805F0AD1016969B9A7
:1005700003685968C1F308011180826A911C816285
:100580000FE0002904BF0169002902D103685968FE
:1005900003E00168496801F07F011170816A4A1C1B
:1005A0008262C18D491EC18589B259BB0168CA6882
:1005B00022F02002CA600168CA6822F48072CA6010
:1005C00001684A69520852004A61202180F84210AD
:1005D00000224263016B012912D1026300F016F878
:1005E00002681168CB0607D50024009412680092B7
:1005F000036859680091009A818D00F036F901E096
:1006000000F057F9002016BD022016BD016801F167
:100610000C0252E8002F01F10C0422F0100244E811
:1006200000210029F2D1704710B5044622681169F3
:10063000E06821F4405101431161D3681949A06871
:100640000B402169034360690B430343D360516945
:10065000A06921F440710143516113498A4202D1DA
:1006600000F089FB01E000F07EFB6268192148433D
:100670009200B0FBF2F16423B1FBF3F26FF0630080
:1006800000FB021109013231B1FBF3F000F0F0017F
:1006900001EB0211226800F00F004018906010BDBD
:1006A00000000000F3E9FFFF0038014080B52A4850
:1006B0002A4901604FF4E13200230C21426083603B
:1006C000C360036141618361C361FFF70FFD18B12E
:1006D000BDE8014000F019BC01BD18B585B0044665
:1006E00010220021684600F035FC21681B48814239
:1006F00030D11B481B4C016841F480410160026805
:1007000002F4804204920499026842F004020260FA
:100710004FF40071006800F0040004900222049875
:1007200000910192032103912046694600F01CFCD0
:100730004FF48060002100900191029120466946AB
:1007400000F012FC00220021252000F00DFD2520E4
:1007500000F027FD06B010BDBC00002000380140AD
:10076000181002400008014010B590F8211002292D
:1007700000F1380206D004231360002180F8201015
:10078000012010BD01680B6823F00E030B600123EC
:1007900001680C68640864000C60916852688B40C2
:1007A0005360012180F82110002280F820200020D1
:1007B00010BD38B590F821200024022A00F1340140
:1007C00003D00420486001243EE00268136823F04F
:1007D0000E0313600268DFF8743015686D086D0051
:1007E000156002689A4208BF012222D0DFF860300B
:1007F0009A4208BF10221CD0DFF858309A4208BF36
:100800004FF4807215D0DFF850309A4208BF4FF491
:1008100080520ED0DFF844309A4208BF4FF4803245
:1008200007D0DFF83C309A420CBF4FF480124FF0F3
:100830008072DFF830301A60012280F8212080F8C1
:100840002040096801B18847204632BD08000240B7
:100850001C000240300002404400024058000240A8
:100860006C000240040002407047704770470EE081
:1008700002684368024408305FEAC37C44BF4B44CB
:100880005B1E52F804CB43F804CB091FF9D150F892
:10089000041B0029ECD17047FEE7FEE7FEE7FEE708
:1008A000FEE770477047704700F0A6BC1348FFF79B
:1008B00096BC00681249884200D0704770B5114C50
:1008C000114D2078114E0D2818BF0A2803D0297821
:1008D0007054491C09E0304600F0BAFA297800202B
:1008E0007054304600F0C4FA0021297001222146DC
:1008F000BDE870400148FFF751BC0000BC0000207B
:1009000000380140040100200501002058000020AB
:100910002DE9F843040016D02078DFF87064C10791
:1009200013D5706800F00C00042807D0706800F040
:100930000C00082841D17068C1033ED5306881039E
:1009400003D56068002800F064812078DFF84C74DB
:10095000810719D5706810F00C0F07D0706800F08F
:100960000C00082861D17068C1035ED4306881072B
:1009700003D52069012840F04C813168606921F07D
:10098000F80141EAC00131602178080740F1818017
:10099000A069DFF80C14002800F0A68001220A608C
:1009A00000F032FC0546706A810763D400F02CFC2D
:1009B000401B0228F7D903202EE16068B0F5803F84
:1009C00004D1306840F48030306014E008B93068F9
:1009D0000AE0B0F5A02F306806D140F480203060E6
:1009E000316841F4803105E020F4803030603168B6
:1009F00021F480213160606858B100F005FC0546A3
:100A000030688103A1D400F0FFFB401B6528F7D3B9
:100A1000D1E700F0F9FB05463068810395D500F079
:100A2000F3FB401B6528F7D3C5E72069A8B1012176
:100A3000396000F0E9FB05463068810705D400F015
:100A4000E3FB401B0228F7D9B5E73068616920F065
:100A5000F80040EAC100306096E7386000F0D4FB4F
:100A60000546316888078FD500F0CEFB401B022871
:100A7000F7D9A0E7DFF818030168C9084FF47A72C4
:100A8000B1FBF2F2009200BF0098411E00280091D5
:100A9000F9D1207841076ED5F0690025C10009D44D
:100AA000F06940F08050F0610125F06900F080505D
:100AB00000900098DFF8EC82D8F80000C10520D43F
:100AC000D8F8000040F48070C8F8000000F09CFBEB
:100AD0008146D8F80000C10513D400F095FBA0EBC7
:100AE00009006528F5D366E7086000F08DFB054630
:100AF000706A8107CDD500F087FB401B0228F7D92B
:100B000059E7E068012808D008B9306A09E00528EB
:100B1000306A06D140F004003062306A40F00100D3
:100B200005E0400840003062306A20F00400306286
:100B300041F28938E06860B100F066FB8146306AB6
:100B4000810713D400F060FBA0EB09004045F6D309
:100B500031E700F059FB8146306A810706D500F085
:100B600053FBA0EB09004045F6D324E71DB1F06923
:100B700020F08050F061E06900284CD0716801F0ED
:100B80000C01082938D002282AD100F047F8054680
:100B90003068810105D500F037FB401B0228F7D9EA
:100BA00009E7206AB0F5803F05D17168A06821F49B
:100BB0000031014371607268206A616A22F4741224
:100BC00002430A437260012000F029F804463068AD
:100BD000810120D400F018FB001B0228F7D9EAE6B7
:100BE00000F01CF804463068810114D500F00CFBBD
:100BF000001B0228F7D9DEE601280AD07068226AB5
:100C000000F48031914202BF00F47010616A8842A2
:100C100001D0012000E00020BDE8F283002038660A
:100C200000F0F2BA2DE9F041040088464ED05E4E45
:100C300000F077F802D200F06FF847D12068534DEA
:100C4000810712D5400703D5696841F4E061696006
:100C50002078010703D5686840F4605068606968CF
:100C6000A06821F0F001014369602178C80725D50B
:100C70006068012802D129688A0303E002282968F4
:100C800002D18A0102D421E08A071FD56968890848
:100C900040EA8100686000F0B7FA0746686861685A
:100CA00000F00C00B0EB810F08D000F0ADFAC01BD3
:100CB00041F289318842F1D303202BE0306800F003
:100CC0000700804504D200F027F801D0012021E080
:100CD0002078410705D56A68E06822F4E0620243A3
:100CE0006A602178080706D56968206921F4605197
:100CF00041EAC001696000F019F86A682B49244B89
:100D0000C2F30312895CC84018602348006800F0F1
:100D100081FA0020BDE8F0813168C90848EAC101C4
:100D20003160306800F0070040457047204919489D
:100D30000A6802F00C03082B00D0704710B500BF02
:100D40001EA4C2F38343D203E35C08D50968584369
:100D50001EA3C1F340415A5CB0FBF2F010BD18462F
:100D60001449484310BD0A48114A006813681249E3
:100D7000C3F3022206E006480D4A006813680E49D4
:100D8000C3F3C222895CC8407047000000100240D3
:100D90000C00002000127A000800002000004242EF
:100DA000800442420070004000200240801500088C
:100DB0000410024000093D00A015000802030405CC
:100DC000060708090A0B0C0D0E0F10100102430054
:100DD00080B500F03FFA00F00AF800F04DFAFFF796
:100DE00065FC012242494348FFF7D8F9FEE700B508
:100DF0008FB0282105A800F07DFA1421684600F084
:100E000079FA4FF480310022069107920D9101206A
:100E10000590099002224FF4E0110C920E9105A862
:100E2000FFF776FD08B100F070F8022101910F2064
:100E30004FF48061009000220391029204920221FB
:100E40006846FFF7EFFE08B100F05FF80FB000BD95
:100E500038B50446002504E0605D00F04EFA6055A8
:100E60006D1C204600F054FA8542F5D331BD0000D8
:100E70002DE9F843044600BF25A11F4DDFF874603B
:100E800025A7DFF8788000F04DFA48B9002200F07D
:100E900037F8082239463046FFF767F901200FE09E
:100EA00020A10FF28809204600F03CFA50B9012237
:100EB00000F026F8092249463046FFF756F900208F
:100EC000287013E01CA1204600F02CFA38B92878CD
:100ED000012819BF092249460822394601E011229A
:100EE00017A13046BDE8F843FFF73FB9BDE8F183ED
:100EF00004010020BC000020060100200010014079
:100F00004FF40051404600F0F8B872B6FEE700001A
:100F10004C4544204F4E00004C4544204F4E0D0A96
:100F2000000000004C4544204F4646004C454420FC
:100F30004F46460D0A0000005354415455530000DB
:100F4000554E4B4E4F574E20434F4D4D414E440D45
:100F50000A00000010B5044610460A460146204625
:100F600000F0EAF9204610BD2DE9F8474FF0000ED9
:100F70000024644A644BDFF894814FF00F098246E5
:100F80000DE017683840106007E0C2F804C04D68F3
:100F9000ED03F6D51068074317600EF1010E0F68D8
:100FA00037FA0EF000F0A780012000FA0EFC0CEAE0
:100FB00007076745F1D1486838B301281AD00228DD
:100FC0001DD003282ED0112816D012281AD0504D2B
:100FD000A8421CBF4F4DA84217D04F4DA8421CBF7E
:100FE0004E4DA84211D04E4DA8421CBF4D4DA842B7
:100FF0000BD018E0CC6816E0CC68241D13E0CC6858
:10100000083410E0CC680C340DE0886808B904247A
:1010100009E0012819BF0824CAF814C00824CAF836
:1010200010C000E00024B7F5807F03D250464FEA9D
:101030008E0C05E0AEF108050AF104004FEA850CBC
:10104000056809FA0CF6B54304FA0CF646EA050CF5
:10105000C0F800C04868C0009FD5D8F8000040F034
:101060000100C8F80000D8F8005005F0010500950F
:101070004FEA8E0500984FEA9E0053F8206005F075
:101080000C0C09FA0CF526EA0505274EB24508BFF7
:10109000002609D0254EB24508BF012604D0244EB3
:1010A000B2450CBF0226032606FA0CF646EA050CEA
:1010B00043F820C0F8434D68D2F808C0ED024CBF99
:1010C00047EA0C0C00EA0C0CC2F808C04D68D2F8D4
:1010D0000CC0AD024CBF47EA0C0C00EA0C0CC2F885
:1010E0000CC04D68D2F804C0AD034CBF47EA0C0CED
:1010F00000EA0C0C49E7BDE8F18702B90904016177
:101100007047000000040140080001401810024030
:101110000000111000001210000021100000221029
:10112000000031100000321000080140000C0140A6
:10113000001001400901020002D428488154704780
:10114000274B02F00F021A4402F8041C7047254B8B
:1011500019684FF6FF020002114000F4E0600843F6
:10116000214908431860704770B51E4B1C68C4F3D2
:1011700002230124C3F10705052D2EBF0F2504FA14
:1011800005F56D1E1E1D072E34BF0023DB1E2940F2
:10119000994004FA03F3BDE870405B1E1A40114306
:1011A000C8E7010007D4012200F01F010F4B8A405D
:1011B000400943F820207047401EB0F1807F01D3E2
:1011C000012070470A490B4A48600023F020107044
:1011D0008B600720086000207047000000E400E0FA
:1011E00018ED00E00CED00E00000FA0500E100E081
:1011F00010E000E023ED00E002494A680878821818
:101200004A6070470000002001484068704700BFF6
:101210000000002038B50D4D0D4B2A7804464FF4E0
:101220007A711868B1FBF2F2B0FBF2F0FFF7C4FF7D
:1012300050B9102C08D2002221464FF0FF30FFF7A2
:1012400093FFAC60002032BD012032BD00000020C1
:101250000C00002080B50748016841F010010160D2
:101260000320FFF774FF0F20FFF7D4FF00F098F87A
:10127000002002BD0020024018B585B010220021D8
:1012800001A8FFF767FE1948194C016841F01001E9
:101290000160026802F0100200920099026842F0B8
:1012A00020020260036803F02003009300990268A3
:1012B00042F0040202600022006800F00400009086
:1012C0004FF4005100982046FFF717FF4FF40051EC
:1012D000019101220292002103910222049201A9AC
:1012E0002046FFF741FE06B010BD00BF18100240B7
:1012F00000100140002200F075B810B5044600F05F
:1013000098F801462046C96ABDE810400847000029
:1013100000F1010310F8011B11B110F8011BFBE7EC
:10132000C01A704710F8012B11F8013B0AB19A421C
:10133000F8D0D01A7047000062F30F2262F31F4208
:10134000401810F0030308D0C91A1FD3DB0748BFA9
:1013500000F8012D28BF20F8022D130030B41446E8
:101360001546103928BF20E93C00FAD8490728BFA4
:1013700020E90C0048BF40F8042D890028BF20F860
:10138000022D48BF00F8012D30BC7047C91818BFA6
:1013900000F8012DCB0728BF00F8012D7047000091
:1013A0000E4881B0016841F001010160026802F05D
:1013B000010200920099426842F080524260406807
:1013C00000F08050009000980548016821F0E0612D
:1013D00041F00071016001B0704700BF1810024079
:1013E0000400014000B500BF130096469446103932
:1013F00028BFA0E80C50FAD85FEA417C28BF0CC097
:1014000048BF40F8042BC90728BF20F8022B48BF6B
:1014100000F8012B00BD0000613800E041381A28B7
:101420008041C00F7047A0F161011A2938BF2038F0
:1014300070470148704700001000002001000000C4
:10144000000000001000000000127A00CE0D00081D
:10145000010000000000000000000000000000008B
:101460000000000019140008000000000000000047
:101470000000000000000000271400080000000029
:10148000000000000000000000000000010000005B
:101490000000000030B4002512E050F8042BD30700
:1014A00044BF4A44521E091F042942F8045BFAD281
:1014B00013468C0744BF15809B1CC90748BF1D708D
:1014C00050F8041B0029E8D130BC704710B507491B
:1014D00079441831064C7C44163404E00A68081D2F
:1014E000114488470146A142F8D110BD0800000010
:1014F00028000000A1FFFFFFB000000058000020FE
:10150000000000006BF3FFFF5800000030FFFFFFFA
:10151000000000200000000000F00DF8002801D0BD
:10152000FFF7D4FFAFF300800020AFF30080FFF798
:101530004FFC00F002F80120704700F001B80000F5
:101540000746384600F002F8FBE7000080B5AFF32D
:101550000080024A11001820ABBEFBE72600020003
:101560000548014603B4684680F30988AFF300805C
:10157000AFF30080FFF7D0FFA5EDF5FE7047000048
:101580000000000000000000010203040607080933
:1015900001488047014800477D1500086115000893
:1015A0000000000001020304FFF7FEBFFFF7FEBFCB
:1015B000FFF7FEBFFFF7FEBFFFF7FEBFFFF7FEBF5F
:1015C000FFF7FEBFFFF7FEBFFFF7FEBFFFF7FEBF4F
:1015D000FFF7FEBFFFF7FEBFFFF7FEBFFFF7FEBF3F
:1015E000FFF7FEBFFFF7FEBFFFF7FEBFFFF7FEBF2F
:1015F000FFF7FEBFFFF7FEBFFFF7FEBFFFF7FEBF1F
:10160000FFF7FEBFFFF7FEBFFFF7FEBFFFF7FEBF0E
:10161000FFF7FEBFFFF7FEBFFFF7FEBFFFF7FEBFFE
:10162000FFF7FEBFFFF7FEBFFFF7FEBFFFF7FEBFEE
:0C163000FFF7FEBFFFF7FEBFFFF7FEBF95
:040000050800156179
:00000001FF
