:020000040800F2
:1000000000180020A5520008614F0008634F000847
:10001000654F0008674F0008694F000800000000A6
:100020000000000000000000000000006B4F00080E
:100030006D4F0008000000006F4F0008714F00086E
:10004000BD520008C1520008C5520008C95200083C
:10005000CD520008D1520008D5520008D9520008EC
:10006000DD520008E1520008E5520008E95200089C
:10007000ED520008F1520008F5520008F95200084C
:10008000FD520008015300080553000809530008F9
:10009000754F00080D530008115300081553000850
:1000A000195300081D530008215300082553000868
:1000B000295300082D5300080000000031530008A8
:1000C000355300080000000000000000395300080C
:1000D000000000007B4F00083D53000800000000B6
:1000E00041530008455300084953000840F02000E0
:1000F00070472DE9F14FB0B0924604910DF14201E5
:100100003A9A2B9199464A7000200AE01AF8011B8E
:100110000498309A90470028049000F031860D989A
:10012000401C0D909AF8000050B12528EED1002116
:1001300000220791089209910A920B910C9204E017
:100140000D9800F01FBE41F001011AF8010F2028A0
:10015000F9D023280CD02B2804D02D2805D0302806
:1001600009D00BE041F00201EFE741F00401ECE7B8
:1001700041F00801E9E741F01001E6E72A280FD134
:10018000D9F8002052F8040BC9F8002000280F907D
:1001900003D540420F9041F004010AF1010A14E036
:1001A0000F92DFF8E83B0AE00F98984205DA00EB7F
:1001B000800402EB4402303A0F920AF1010A9AF8E5
:1001C0000020A2F130000A28EED39AF800002E2871
:1001D00003D04FF0FF320E9229E01AF8010F2A28BF
:1001E00009D1D9F8000050F8042BC9F800000E928C
:1001F0000AF1010A1BE02D280CBF0AF1010A0020B8
:1002000000220E92DFF8844B0BE040B90E9AA24216
:1002100005DA02EB820503EB4503303B0E930AF14E
:10022000010A9AF80030A3F130020A2AEDD3ADF8A2
:1002300040100FF65C309AF8001000F0EBFE08B1A9
:100240001AF8010B8DF842009DF84200682805D18C
:100250009AF8000068280CD1622106E06C2804BFDF
:100260009AF800006C2804D171218DF842100AF12F
:10027000010A12A806901AF801BBBBF125012CD087
:100280001C3900F09481091F022940F29081133932
:1002900000F0A884093900F08A81891E00F03D85AC
:1002A000491E00F0EA84491E022940F28081091F9C
:1002B00000F0E384491F00F0EF80491E00F09284B3
:1002C000491E00F0D780C91E0CD0891E00F08A8418
:1002D000C91E00F0878400F02BBD01220792252162
:1002E00000F023BDD9F8000050F8044BC9F8000015
:1002F000002C059440F0AB802B994878002800F042
:10030000A1804FF0FF340FF6902000F09BFE201AE2
:1003100040F0368500F018BD01236A4602A9304638
:1003200000F0FEFD002840F02B856D1EF4D13096C4
:10033000079D12AF75B1309E17F8011B0498B047A6
:100340000028049000F01C850D98401C6D1E0D9037
:10035000F2D130960A9D3021002D8DF800100CDD71
:10036000309E01236A4602A9304600F0D9FD0028DC
:1003700040F006856D1EF4D13096059F089D75B13D
:10038000309E17F8011B0498B0470028049000F035
:10039000F7840D98401C6D1E0D90F2D130960B9D88
:1003A0003021002D8DF800100CDD309E01236A46AF
:1003B00002A9304600F0B4FD002840F0E1846D1E33
:1003C000F4D1309605980899099D471875B1309E6B
:1003D00017F8011B0498B0470028049000F0D0845F
:1003E0000D98401C6D1E0D90F2D130960C9D302161
:1003F000002D8DF800100CDD309E01236A4602A905
:10040000304600F08DFD002840F0BA846D1EF4D116
:1004100030969DF8400041077FF584AE2020002CE7
:100420008DF800007FF77EAE309D01236A4602A959
:10043000284600F075FD002840F0A284641EF4D127
:1004400030956FE60FF63830059000F07DBC0E9DBC
:10045000002D04D5204600F015FE044607E02A468C
:10046000204600F019FE002814BF041B2C460894F7
:1004700000F06ABCD9F8001051F8040BC9F800105C
:1004800020F00004002121F0FF35CDE9024512AB38
:100490000593782100F03DBC2B99487820B14FF0AE
:1004A000FF340FF6AC2030E79DF84200622860D0A0
:1004B000682817D06A283FD06C2806D0712847D00A
:1004C00074282CD07A281DD062E0D9F8001051F899
:1004D000040BC9F80010002866D14FF0FF340FF666
:1004E000882012E7D9F8001051F8040BC9F8001061
:1004F00020B94FF0FF340FF6702006E70D99018008
:1005000000F022BCD9F8001051F8040BC9F8001013
:10051000002849D14FF0FF340FF64C20F5E6D9F80A
:10052000001051F8040BC9F8001000283CD14FF01E
:10053000FF340FF63420E8E6D9F8001051F8040B28
:10054000C9F8001080B94FF0FF340FF61C20DCE62C
:10055000D9F8001051F8040BC9F8001020B94FF079
:10056000FF340FF60420D0E60D9AD317C0E900231C
:10057000EAE3D9F8001051F8040BC9F8001020B9CB
:100580004FF0FF340FF6E010BFE60D990170DBE38A
:10059000D9F8001051F8040BC9F8001020B94FF039
:1005A000FF340FF6C410B0E60D990160CCE39DF85E
:1005B00042004C2807BFD9F80010CB1DD9F8000025
:1005C000C31D23F00703C9F80030D3E90001083345
:1005D000C9F80030CDE90201C80F02D007982D21DB
:1005E0000AE0BDF84000810702D507982B2103E0FF
:1005F000C00705D50798202112AB1954401C07905D
:1006000012A80799DDE9024543184BF02000612844
:10061000059321AE0BD00E98002802D506200E902F
:1006200005E001BF4BF02000672801210E91DDE9B4
:1006300002014F007F1517F1010F0DD108030BD0F8
:10064000ABF1610203201A2A089002D20FF634118E
:100650000FE00FF634110CE017F1010F0ED1090372
:100660000CD1ABF1610203201A2A08901CD30FF6BB
:1006700020110322184600F03BFD65E3DDE902018D
:100680006A4600F041FDCDE902014BF020006128EF
:1006900011D1059830210170821C0592BBF1610FC8
:1006A0000CBF7821582102E00FF6E001E1E741702C
:1006B0000798801C0790DDE9020120F0000231F06C
:1006C000004308BF002A02D10025002445E14BF079
:1006D0002008B8F1610F40F095800E98002847BFC0
:1006E00021210191401C0190019F7F1C2046294639
:1006F00000220023DDE9024500F03EFD38BF85F011
:10070000004500998DF88420091F002F00910DF1FC
:10071000850034DD0646204629460022002300F0ED
:1007200045FD2BD21C2200F05BFD04460D4600F077
:10073000F5FDFF1F002F804609DD00F00BFE02468D
:100740000B462046294600F0CDFE04460D46F01D1E
:100750000721B8F1000F0CDD491E5EBF08F00F0243
:1007600000F8012D4FEA2818F3D502E0002200F826
:10077000012D491EFAD5C61D002FCCDC30460DF1E7
:100780008501401A01990DF1850605468842C8BFCA
:100790000D46002D2FD4854206DA0DF18500415D0E
:1007A0000829A8BF0F2000DA0020294621AA0A4400
:1007B00000E06D1E12F80139491E8342F9D00F285E
:1007C00004D10DF18500425C521C4254002904D52D
:1007D0000098001D21AE6D1C0090681E0BD43118CE
:1007E0000A783032D3B23A2BA4BF5A443A3A401E68
:1007F00001F80129F4D50E98002840F1AD80691E5A
:100800000E91A9E00099DFF8082747F2975041437D
:1008100091FBF2F2009225F00045C2F10702002A96
:1008200004DD2046294600F04FFB0BE05242002039
:10083000DFF8E01600F048FB02460B46204629464A
:1008400000F0C2FE04460D46B8F1660F06BF009FD9
:100850000A3706270E983F18142FC8BF14273020D8
:100860008DF884000DF1850000E03046002F35DD65
:1008700006462046294600F0CBFF01460A4606F10F
:10088000080304200A26B2FBF6F606EB860EA2EB5E
:100890004E02303203F8012C0A22B6FBF2F202EBD0
:1008A000820EA6EB4E063036401E03F8026DE9D1EB
:1008B000083F002F03F10806D7DD084600F0BAFF15
:1008C00002460B462046294600F00CFE0022DFF8C7
:1008D000483600F0BDFF04460D46CAE70DF185011C
:1008E000401A0DF1850604E00099491E401E009152
:1008F000761C31783029F7D0B8F1660F02D1009913
:10090000491C04E0B8F1650F0CBF012100210E9DC8
:100910004D19A842B8BF451E002D1DD4854204DAEA
:10092000705D3428C8BF392000DC30202946721E93
:10093000531800E06D1E13F80149491E8442F9D096
:10094000392802D1705C401C7054002904D50098ED
:10095000401C16466D1C0090009C01F04FF8406A48
:100960000778DDF8388028B2002802DC01250FF274
:1009700024664BF02000662808BF641C16D0672848
:1009800046D120B210F1040F48DB404546DA9DF80D
:100990004000641C010703D428B24045D8BF8046FC
:1009A00020B2B8EB000848BF4FF000080FFA84FBF4
:1009B000BBF1000F00F3B5800898411C089130226C
:1009C00005990A54B8F1000F03DC9DF840000107B7
:1009D00004D50898411C089105990F5418EB0B0F8A
:1009E000B8BFC8F1000424B26042A0442AB20B9000
:1009F0009045B8BF4546059B08982DB209952A46F3
:100A00003146184400F074FBA8EB05000C90D2E0CE
:100A1000BBF1610F17D14FF0700B19E028B24045C0
:100A200004DA9DF840100A0758BF8046B8F1010863
:100A300048BF4FF00008BBF1670F14BF4FF0450BE4
:100A40004FF0650B04E0BBF1410F08BF4FF0500BB6
:100A50000898411C0891B8F1000F059916F8012B70
:100A60000A5403DC9DF8400001071AD50898411C80
:100A70000891B8F1000F05990F5412DD6D1E28B2D0
:100A80008045B8BF45460598089B2AB231461844B0
:100A900000F02EFB08992DB269180891A8EB05000B
:100AA0000B9005980899084421B2002980F800B0FD
:100AB00003D42B224270821C04E02D2242700C468B
:100AC000821C644200212CAB20460AE004460A2026
:100AD00094FBF0F000EB8005A4EB450403F8014B18
:100AE000491C00B20028F1DC012906DC4BF0200093
:100AF000652804BF302002F8010B00292CAB08D177
:100B0000302002F8010B06E0491E585C303002F834
:100B1000010B0029F8DC059908980844121A09927B
:100B200049E028B221B288421CDA0598089B2AB213
:100B30003146184400F0DCFA08992DB26918089182
:100B4000ABEB0500B8F1000F0B9003DC9DF8400003
:100B5000020704D5059847540999491C0991CDF815
:100B6000308028E00598089B22B23146184400F0F6
:100B7000BFFA08982D1B5844B8F1000F089003DC09
:100B80009DF840100A0703D5411C089105990F54A0
:100B900028B28045B8BF45460598089B2AB206EBA7
:100BA0000B01184400F0A4FA08982DB228180890F8
:100BB000A8EB05000B909DF8400000F014001028F1
:100BC00040F0C280079A08990B988A1809998218F0
:100BD0000C988A1882180F98824280F2B580821A87
:100BE0000A92B1E09DF84200622808D068280ED031
:100BF0006A2814D06C281FD0712810D01CE0D9F8B6
:100C0000001051F8040BC9F80010C0B21AE0D9F86E
:100C1000001051F8040BC9F8001080B212E0D9F8A6
:100C20000000C21D22F00702C9F80020D2E900012D
:100C30000832C9F8002006E0D9F8001051F8040B7A
:100C4000C9F800100021CDE902019DF8400001071C
:100C50005AD5DDE90223002B08BF002A54D04BF0FF
:100C60002000782850D1079812A930220A54401C3D
:100C7000431C079301F800B046E09DF8420062284B
:100C800008D068280ED06A2814D06C281FD071288C
:100C900010D01CE0D9F8001051F8040BC9F800106E
:100CA00040B21AE0D9F8001051F8040BC9F800104E
:100CB00000B212E0D9F80000C21D22F00702C9F804
:100CC0000020D2E900010832C9F8002006E0D9F876
:100CD000001051F8040BC9F80010C117CDE902014A
:100CE000002902D507982D210AE0BDF840008107B0
:100CF00002D507982B2103E0C00705D507982021CE
:100D000012AA1154401C079012A80799014405919A
:100D1000594602A800F04EF816E001200790D9F8D5
:100D2000000050F8041BC9F800008DF848100BE0D3
:100D300001212522BBF1000F07918DF8482003D037
:100D4000022207928DF849B00F9A07980A990C9CD5
:100D5000121A0898521A0B99121A0998521A121A52
:100D60009DF84000141B41073FF5E2AA2020002C0B
:100D70008DF800007FF7DCAA309E2546FFF7CCBA3D
:100D80004FF0FF3031B0BDE8F08F0000CBCCCC0C81
:100D9000686A6C747A4C00007072696E74665F7376
:100DA0003A2062616420257320617267756D656EFB
:100DB000740000002DE9FC4707468A463C6950460E
:100DC0006F2808BF082505D0FFF790F9782814BFD1
:100DD0000A251025D7E900013C2680468946BAF14C
:100DE000640F18BFBAF1690F05D1002903D5D8F1F6
:100DF000000869EB4909B9F1000F08BFB8F1000F0D
:100E00000CD1386B50B9082D3AD197F8380001074A
:100E100036D530223B2684F83B2031E08DF800A007
:100E2000404649462A46EB1700F0ECFD3032D0B27E
:100E3000761E3A2801960EDAA255404649462A46C1
:100E4000EB1700F0DFFD80465FEA010908BFB8F14B
:100E5000000F05D108E09DF800001218513AEBE7A9
:100E6000F868A1198842DBD3082D09D197F838001A
:100E7000010705D5A05D302802D0761E3020A05590
:100E8000C6F13C02BA61A119F960386B824208DAF6
:100E9000821A3A624FF6EF70398F01403987BDE808
:100EA000F38700280ED597F8380000F014001028BA
:100EB00008D17B6B7969386A5B1A1B1A9A1A002A67
:100EC000C8BF3A62BDE8F3872DE9D04306460F4616
:100ED00014464FF00008DFF8449012E0E00707D511
:100EE00042464B463046394600F0B2FC06460F46B5
:100EF0004046494642464B4600F0AAFC64108046F4
:100F00008946002CEAD130463946BDE8D08300003E
:100F1000A08601000000F03F84D7974100002440E4
:100F2000F8B505460E4617461C4600205CB117F87A
:100F3000011BB068A847B06030B1F06A401CF06295
:100F40000020641EF3D1F2BD4FF0FF30F2BD00006F
:100F50007072696E74665F733A20256E20646973DF
:100F6000616C6C6F776564007072696E74663A20AC
:100F700062616420256E20617267756D656E740014
:100F8000000000006E616E004E414E00696E66000A
:100F9000494E46003000F0B40246106895681318B8
:100FA000506803EB5004C00748BF4D44A3422DD006
:100FB00013F8016B16F0030004BF13F8010BC01CFB
:100FC00031090F2907D113F8011B0F3103E013F882
:100FD000017B05F8017B401EF9D10029E6D013F80A
:100FE000010BC6F38106032E08BF13F8016B00EB5B
:100FF0000620404228440026B71E8F421EBF10F82C
:10100000017B05F8017B761CF6D1CFE7F0BC02F13D
:101010000C007047C9B202788A421AB11CBF10F89E
:10102000012FF9E718BF002070478268521C8260C8
:10103000426832B10268531C036011704168491E56
:101040004160704780B500B906A005490B681BB127
:1010500022220021984701E000F0ECFD222002BD91
:10106000F4130020636F6E73747261696E7420688C
:10107000616E646C65723A20626164206D657373A1
:101080006167650000F1010310F8011B11B110F850
:10109000011BFBE7C01A7047C9B2830706D0521E76
:1010A00022D310F8013B9942F7D11FE0083A13D33D
:1010B00002F1040241EA012141EA014150F8043BF6
:1010C000121F21BF4B40A3F1013C2CEA030C1CF082
:1010D000803FF3D0C9B2001F083210F8013B521E06
:1010E00028BF91EA030FF8D818BF0120401E7047AF
:1010F0004AB1000011F8013B521E00F8013B1CBF31
:1011000011F8013BF8E7704710B5144600F002F8FB
:10111000226010BDC1F30A5343B14A0012F5001F0B
:1011200028D2A3F2FE32A1EB0251704750EA410CE3
:1011300020D001F0004C31EA0C01B1FA81F204BF79
:10114000B0FA80F3D2180B3AB2F120032CBF00FAA8
:1011500003F1914041EA0C013EBFC2F1200C20FA9C
:101160000CF319439040524240F2FD33D21A01EB86
:10117000035170470022704741EA030C50EA4C0CBF
:1011800052EA0C0C4FF4001C09D307D01CEB410FA2
:101190009CBF1CEB430F8B4208BF824270471CEB85
:1011A000430FFBD8994208BF9042704741EA030CB5
:1011B00050EA4C0C52EA0C0C4FF4001C09D307D037
:1011C0001CEB410F9CBF1CEB430F994208BF9042A0
:1011D00070471CEB410FFBD88B4208BF824270471F
:1011E000124254D440F2FF7C1CEA11530FD06345E5
:1011F00031D09B1863453CBF01EB0251704701F0B1
:10120000004141EA0C510020AFF30080704750EAE2
:10121000410320D001F0004C91EA0C011CD0B1FA3E
:1012200081F30B3B9A420DD9D21A994051EA0C0135
:10123000C3F1200C20FA0CFC61449840531C40F28E
:10124000FF7CD7E7914041EA0C01C2F1200C20FA63
:101250000CF3194390407047B0FA80F31533202BFC
:10126000E0D3202AEED3203A203B9A4209D9D21A61
:1012700000FA03F141EA0C010020531C40F2FF7C0C
:10128000B8E700FA02F141EA0C010020704752422F
:1012900040F2FF7C1CEA11530DD06345DBD0B2EB6A
:1012A000030C3CBFA1EB025170470CF1010221EA93
:1012B000035141F4801150EA410CCCD001F0004CB4
:1012C000352A27DC30B481EA0C01B2F1200309DAB7
:1012D000C2F12003044601FA03F5D0402843D1406F
:1012E0009C400CE0C3F12002450020FA03F418BF33
:1012F00044F0010421FA03F091400C43002174F101
:10130000004550F1000051EB0C01244230BC7FF449
:101310007BAF70476146002076E72E00C1F30A5389
:1013200040F21E42D31A0CDDCA0283F3070342EADD
:10133000505242F00042DA4002EBE17282EAE17080
:1013400070476FEAE17203F2E13008B182F00040C9
:101350007047000010F0004160B148BF4042B0FA51
:1013600080F29040D21CC2F5846241EA025202EB44
:10137000D021400570470000841A71EB030604D2A7
:101380006E40001BB141121973414FF4001C1CEB5D
:10139000410F34BF7CEB430683E00C0DA4EB1356E6
:1013A000362E00F37C80012E45EAC32341DC43EA5C
:1013B000525312BFD20292025B08240545EAC121B2
:1013C00041EA5051D2EBC020994125D407D1B0FA5F
:1013D00080F610FA06F162D00020203608E0B1FA5B
:1013E00081F6B140C6F1200220FA02F21143B0406A
:1013F0004FEAF474B4EB465434F001064FEA740437
:101400000AD8D6F50016760D04F00044F04061FAD3
:1014100006F25040F1404840C00A40EA415021F0F5
:10142000004128BF5FEA500550F1000044EBD12194
:1014300035E0DB0A45EAC121C90AB6F120050EDD17
:1014400042EA0242120CC5F1200603FA06F6EB400E
:1014500042EA06056D42984161F100010DE062FA31
:1014600006F5F240554063FA06FC82EA0C02F340AE
:101470005A406D42904161EB030111F4801F05D188
:10148000641E620502D06D004041494121F4801183
:10149000430875F1004350F1000041EB045170BC6A
:1014A00070471CEB410F15D223F0004352EA43066C
:1014B0000BD04FEA4C0CBCEB410F04D80C0D661E50
:1014C000342EB7DDEBE7801A994150EA410608BF98
:1014D0000021E4E708BF1CEB430F28BF6FF00001B9
:1014E000DDE7000070B491EA030F4FF000457FF58F
:1014F00043AF6B40841A71EB030603D2001BB1416A
:10150000121973414FF4001C1CEB410F34BF7CEBEC
:10151000430442E00C0DA4EB1356352E4FDC45EA94
:10152000C323DB0A45EAC121C912B6F120050DDD4E
:1015300063FA05F6EB4086EA0305124218BF45F050
:101540000105C01851F100010CD213E062FA06F552
:10155000F2405540F3415A40B340F3405A4080189E
:10156000594107D349085FEA30005FEA350528BFD3
:1015700045F0010501F58011420875F1004250F176
:10158000000041EB04514E0016F5001F70BC38BF3F
:1015900070470020090D090570471CEB410F10D260
:1015A00052EA43060BD0BCEB410F05D80C0DAB4300
:1015B000661E342EB6DD02E0AB438018594170BC84
:1015C000704770BC70470000F0B540F2FF7581EACB
:1015D000030C0CF0004C15EA11541DBF15EA13570B
:1015E000AC42AF42E5E0BC41C1F31301C3F31303C6
:1015F000801A994143F4801304D2641E00184941B3
:1016000080185941C90241EA5051B1FBF3F603FB7E
:101610001611A2FB0675D7EBC020A94102D2761E97
:1016200080185941C90241EA5051B1FBF3FE03FB56
:101630001E11A2FB0E75D7EBC020A94103D2AEF15B
:10164000010E80185941890241EA9051760546EA17
:101650008E2EB1FBF3F603FB1611A2FB0675D7EB3A
:101660008020A94102D2761E80185941C90241EA60
:1016700050514EEA060EB1FBF3F603FB1611A2FB26
:101680000675D7EBC020A94102D2761E80185941B9
:10169000C90241EA5051B1FBF3F703FB1711A2FB5A
:1016A0000735D3EBC020A94167F100070CBF00420A
:1016B00047F0010766F3D5274FEA1E31B80814F545
:1016C000806412DDBD0775F1004250EB0E5051EB06
:1016D000045111F5801F5CBF41EA0C01F0BD4CF0D4
:1016E0007F6141F0E0410020F0BDBD076D0840EA98
:1016F0000E5041F48011D4F10104B4F120060ADA4D
:10170000C4F120060200E04001FA06F3E14018436C
:10171000B24015430EE0342C13DCC6F1200445EA38
:1017200040056D0820FA06F2154321FA06F0A140A3
:101730000D43002175F1004250F1000051EB0C0106
:10174000F0BD00205FEA0C01F0BDCFB992185B41FB
:10175000B3FA83F704BFB2FA82F6BF190B3FB7F1B1
:1017600020062FBF02FA06F3BB40C7F1200622FA7B
:1017700006F638BF3343BA401CB1E419641E33E7A0
:101780007F4231F00041B1FA81F404BFB0FA80F633
:10179000A4190B3CB4F120062FBF00FA06F1A140BA
:1017A000C4F1200620FA06F638BF3143A0403C1BA6
:1017B0001AE7AC421ABF05EA1357AF4212E050EAEB
:1017C00041061CBF52EA4306BFE750EA41073046D4
:1017D00061461CBF41EA0551F0BD52EA430C08BF07
:1017E000C143F0BD00204FF4001616EB410F98BF27
:1017F00016EB430F08BF16EB410F24BFC14305E0B2
:1018000016EB430F0CBF61464CEA0551F0BD0000DA
:10181000400D40F21E4C40EAC120BCEB115C40F090
:10182000004003D48CF30701C84070476FEAE170B1
:101830007047000050B1B0FA80F18840C91CC1F572
:101840008461090501EBD0214005704701467047CE
:1018500030B540F2FF7C1CEA11541DBF1CEA135541
:10186000644565453FE0641981EA030C6FF35F53FB
:101870000CF0004C43F48013C90241F0004141EAEE
:10188000505EC5021100A5FB020200284FF00000C7
:10189000EEFB01204FF00001E3FB052118BF42F0F1
:1018A0000102401800214941E3FB0E01A4F58064C8
:1018B0000D0302D292184041494154F1010470DDF8
:1018C000450872F1004250F1000051EB0451A1F5BE
:1018D000801102D441EA0C0130BD40F2FF7E4CEA97
:1018E0000E51002030BD0CEA1355644518BF654504
:1018F00081EA030C0CF0004C41D050EA410E1CBFB1
:1019000052EA430E02E06146002030BD24422C44DE
:101910001BD15FEA050EF6D0090302BF0146002085
:10192000AEF1140EB1FA81F5AEEB050401FA05FE35
:101930000C35C5F1200100FA05F5C8404EEA000E4D
:101940006FF35F5343F480139CE733F00043B3FA23
:1019500083F504BFB2FA82FE75440B3D641BB5F1FA
:10196000200E2FBF02FA0EF3AB40C5F1200E22FA73
:101970000EFE38BF43EA0E03AA40641C7CE750EA1F
:10198000410E14BF52EA430E6FF000014FF40015F0
:1019900015EB430F8EBF194615EB410F9DE7B4D8E9
:1019A00030BDD4F10104B4F120050FDAC4F12005F3
:1019B000520828BF42F0010210FA05FE01FA05F5AF
:1019C0007244E2BFE0402843E1400FE0352C9ADC4E
:1019D000C5F1200452EA400220FA05F218BF42F095
:1019E000010231FA05F0A1400A43002172F10042E0
:1019F00050F1000051EB0C0130BD00000048704771
:101A0000B8010020BBBBE1B1B2F5803F80F07E8021
:101A1000022A1ED98C46B1FBF2F102FB11C31B0452
:101A200043EA1043B3FBF2FC02FB1C3380B240EAF2
:101A30000343B3FBF2F002FB103240EA0C400023F8
:101A40007047022A05D98446B0FBF2F002FB10C2AF
:101A500070474AB105D100F0010249085FEA300041
:101A6000704700220023704700F0E8B80B00020026
:101A7000002100207047904271EB030CF6D3B3F5C0
:101A8000803F2FD2F0B5B3FA83F7B1FA81F4A7F112
:101A90000F0E3D1B5340CEF1200602FA0EF2F34129
:101AA0005340B5F10F0746D80F3C2C444140C4F1D8
:101AB0002006A040F1414140B1FBF3F603FB1611B3
:101AC000A2FB0645001BA94102D2761E801859418F
:101AD00080EA010221FA0EF362FA0EF200215A4066
:101AE0003046F0BD30B4B1FBF3FC03FB1C11A2FB8C
:101AF0000C45001BA94103D2ACF1010C80185941DF
:101B000030BC02460B46604600217047B2F1807F30
:101B100065D3F0B5B2FA82F7B1FA81F4C7F10F06D6
:101B20003D1B22FA06F307F1110EF24120355A400F
:101B3000B5F10F07B8D94140C4F12006A040F141EA
:101B40004140B1FBF3FC03FB1C11A2FB0C45001B45
:101B5000A94103D2BCF1010C801859410F2F12D3B7
:101B60000F3FC90341EA5041B1FBF3F603FB1611E5
:101B7000A2FB0645D4EBC030A94102D2761E8018E4
:101B8000594146EACC3C07B34140C7F12006B84072
:101B9000F1414140B1FBF3F603FB1611A2FB0645F0
:101BA000001BA94102D2761E8018594180EA010229
:101BB00021FA0EF3C7F1200462FA0EF20CFA07F0D4
:101BC0005A402CFA04F13043F0BD80EA010221FAB8
:101BD0000EF3002162FA0EF260465A40F0BD8C46C8
:101BE000B1FBF2F102FB11C31B0243EA1063B3FB2A
:101BF000F2FC02FB1C331B024CEA002043EA106398
:101C0000B3FBF2FC02FB1C331B024CEA002043EA4C
:101C10001063B3FBF2FC02FB1C331B024CEA0020F6
:101C200043EA1063B3FBF2FC02FB1C324CEA0020D7
:101C300000237047012000F003B800007047000047
:101C400080B5AFF30080024A11001820ABBEFBE75D
:101C5000260002007FB504004FD004F52475687893
:101C600020B900212970204600F04CFD0320687047
:101C700000216171206800F049FE00F049F86846D3
:101C800090E80E00206800F037FE002833D120686D
:101C9000002100F041FE70BB0021282000260BE04F
:101CA00000FB01F22244012311745374491CD674C1
:101CB000166256629662C9B222799142F0DB002127
:101CC00000230CE000FB01F2224402F5A87211701F
:101CD000491C5370D670136156619361C9B2227961
:101CE0009142EFDB00F014F8684690E80E0020689F
:101CF00000F014FE18B102206870012006E0607345
:101D000001216970206801F0A3FA002004B070BDC1
:101D10006846211D0922FFF7EBB910B500F00FFC52
:101D200001D1022010BD00F006FC206800F0E6FDA5
:101D300000F0F7BB0021204600F0D3BD2DE9F84F9D
:101D4000054686B0286801F085FA01041BD44205D7
:101D500040F1AD8200F06EFB4FF6FF308A88024002
:101D60008A80284600F005FD0021284600F0ECFBA3
:101D700028E3012803D100F061FB002008803978B6
:101D8000284600F0E9FC2F6807F1440108880204A6
:101D9000EED50A8812F00F00009048F280084BF64A
:101DA0008F7B40F68F7448F60F7640F0AA80D006FD
:101DB0002AD429680A881640084646F40046068058
:101DC0002868B0F850102A7C01EBC20100EB4100FA
:101DD00000F204400088696AC0F30900E862084420
:101DE00068620021284600F0B7FC687B0028CAD052
:101DF000A86A0028C7D1687B296840F08000A1F854
:101E00004C0000206873BEE72A681088020505F5BB
:101E1000A8761BD58889317800EBC10007EB40021A
:101E200002F20C4205F526711388C3F30903F3612E
:101E30003846F28801F02AFA286801880C4044F0FC
:101E400080040480284600F077FC9CE700049AD5C3
:101E500029680A881440084644F0800404802868F1
:101E6000B0F85010327800F0C8FA1B88C3F30903A9
:101E7000002BF3611CBF716900290AD0F28801F0C0
:101E800005FA7069F169014471612846002100F08A
:101E900059FC286800880105D7D400F44050B0F5FB
:101EA000405FD2D029680846B0F85020511801F29E
:101EB0000C410888C0F30900088030693F2808D326
:101EC000420910F01F0F08BF521E088840EA822006
:101ED00001E018B9088840F4004006E04208C00755
:101EE00048BF521C088840EA822008802868018880
:101EF0000BEA010181F4405148EA0108A0F8008092
:101F000041E72868009930F8219008462821484385
:101F1000019048F68F7A5FEA094040F19E80296877
:101F2000009831F8201028680C40009944F0800493
:101F300020F82140019A2A4402F5A877387B70B92D
:101F40002868B0F850103A7800F057FA1C88C4F3AB
:101F50000904002C6DD0FA887969234667E0F87887
:101F6000022848F2C0022FD12C68B9695FEA4943C0
:101F70003B78A446B4F8504004EBC30409F0400099
:101F80000CEB440C11D50CF2044C00F030FA2CBFD1
:101F9000091B0021B96109B900F040FA08B100F04D
:101FA00033FA002C45D03A893EE00CF20C4C00F09C
:101FB0001EFA2CBF091B0021B96109B900F02EFAE5
:101FC00078BB00F021FA2CE02968387831F820300D
:101FD0000AEA03030C461A4324F8202038782968BB
:101FE000024631F8223059040FD52A68B2F8501051
:101FF00001EBC00102EB410000F204400488C4F38D
:102000000904002C15D03A890EE02968B1F8502057
:1020100002EBC00201EB420000F20C400488C4F362
:102020000904002C05D07A8923467969286801F0D3
:102030002DF9F8692018F8617A6922447A61B86943
:1020400038B13869844204D32868394600F03DFE2F
:1020500003E03978284600F075FB5FEA09605FD538
:10206000019805F110010F182868009930F8212017
:10207000164046F4004620F82160F87801282BD15C
:102080000021B961387B00280ED05FEA496013D582
:10209000787850B900F0E5F90188C1F309010180B1
:1020A000028842F40042028069E60128FCD100F077
:1020B000D8F90021018062E678782A6800287FF448
:1020C00058AE00F0BBF90888C0F3090008800A8800
:1020D00042F400420A8052E62A68B8695FEAC951B0
:1020E00013461ED43978B2F8502002EBC10203EB3C
:1020F000420303F204431A88C2F30902824234BF46
:10210000801A00200028B8613FF43AAE7869104484
:102110007861F9695218FA613946286800F0D5FDEE
:1021200031E697F800C0B2F850205FEA496102EB4F
:10213000CC0209F480444CF2800603EB42034DD5F7
:1021400003F204431B88C3F30903834234BFC01A5C
:1021500000200028B86104D100F0A0F9002C57D06D
:102160004CE00CB100F087F997F82400012844D125
:1021700000F034F903D31346C01A386201E000F0CE
:1021800085F9787808BB00F062F93F2B0288C2F32A
:10219000090202800AD35A0913F01F0F08BF521E0A
:1021A000048844EA822444F400440CE023B9028801
:1021B00042F4004202800DE05A08DC0748BF521C7E
:1021C000048844EA8224048004E0012802D100F05B
:1021D0003EF9038079619BB23A8957E003F20C43E0
:1021E0001B88C3F3090398422CBFC01A00200028A3
:1021F000B8610ED100F052F9002C4AD12968387824
:1022000031F820200AEA020246EA020A21F820A058
:102210003FE00CB900F02FF997F82400012838D1DD
:1022200000F0DCF803D31346C01A386201E000F076
:102230002DF92C68787808BB00F0C7F83F2B108880
:10224000C0F3090010800AD3580913F01F0F08BF0C
:10225000401E148844EA802444F400440CE023B96E
:10226000108840F4004010800DE05808DC0748BF9B
:10227000401C148844EA8024148004E0012802D120
:1022800000F0A3F8138079619BB27A89286800F086
:10229000EBFF2968387831F8202048F6BF731A40E0
:1022A00082F0300248EA020821F820806BE5410400
:1022B00004D500F0BFF84BF6FF7080E0810404D530
:1022C00000F0B8F84DF6FF7079E0C1041BD52A681C
:1022D00002F140014FF6FB700B8803400B804FF674
:1022E000F7702968B1F840200240A1F84020284644
:1022F00000F05FFA2968B1F844204EF6FF70024002
:10230000A1F844205EE0010546D5002002A92A6814
:1023100032F8203021F81030401C0828F7D3286804
:1023200030F8402F42F0010202804FF6FE702A681A
:10233000B2F840300340A2F840302A68B2F84400B6
:102340004305FBD5B2F844404FF6FF300440A2F8F5
:10235000444000202B6831F8102023F82020401C36
:102360000828F7D32868B0F8401041F00801A0F819
:1023700040104FF2FF702968B1F844200240A1F8E4
:1023800044202868B0F8401041F00401A0F8401043
:10239000284600F000FA15E081050AD500F04AF859
:1023A0004FF6FF508A8802408A80284600F0DDF907
:1023B00008E0C00506D5296840314FF6FF608A88DD
:1023C00002408A8007B0BDE8F08FB4F850000219CF
:1023D0003C7802EB041202F20C427047FA69786909
:1023E0009A18FA61C1183A69386A90427047BCF885
:1023F0000040C4F30904A142704701EBC20100EBA5
:10240000410303F20C4370472968387831F82030D3
:102410000AEA03031A4321F820207047296831F89B
:1024200023C00BEA0C0B8BF4005B48EA0B0B21F882
:1024300023B07047286800F140017047B2F850009F
:1024400081183A7801EB021101F20C4170472868BB
:10245000B0F850203C78101800EB041000F2044053
:1024600070472868B0F850103A78081800EB02104E
:1024700000F204407047286830F82C100AEA010185
:10248000024646EA010A22F82CA0704710B1034622
:1024900000203862002287F824207047787880B9BD
:1024A0002868B0F85020101800EB0C1000F204401F
:1024B0000188C1F309010180028842F400420280D0
:1024C0000BE0012829D12868B0F85020101800EB43
:1024D0000C1000F20440002101802A68787880B94D
:1024E000B2F8500081183A7801EB021101F20C4168
:1024F0000888C0F3090008800A8842F400420A8074
:102500000BE0012809D1B2F8500081183A7801EBAC
:10251000021101F20C41002008802846397800F0B1
:102520001BB90121FFF707FC206800F08FFE002097
:1025300084F8900210BD012084F890027047044690
:1025400094F890020128704710B5FFF7F8FF01D109
:10255000022010BDFFF7EFFF6173206800F070FEEE
:10256000E5E770B5044601F00705282045436019EA
:102570000D0603D510300126467003E000F5A87063
:102580000025457001F0070101700261C370022B44
:1025900004BF0021017194F89012012901D1022099
:1025A00070BD00F014F800F0C5F9002084F8900226
:1025B00070BD10B5044600F094F800F08BF801D11E
:1025C000022010BD00F003F800F0F7FAAFE7012297
:1025D00084F8902201462068704738B50C4604F014
:1025E000070528214D43411901F5A87104F007049E
:1025F0004A618B610022CA614A700C701BE001F0D5
:102600000701282251430844D0F86C01704738B5BF
:1026100001F0070528246543441910346261A36161
:1026200023620122002301F0070184F82420E361E2
:10263000627021702146006800F047FB002032BD27
:1026400038B505460C46297904F00700814201D2CD
:10265000012032BD2821220605D54843284400F137
:102660001001012004E06143681800F5A871002002
:10267000487001228A7004F007040C7095F89002EB
:10268000012801D1022032BD85F89022286800F08F
:1026900081FD24B9286805F5267100F0DEFD0020D3
:1026A00085F8900232BD10B5044601F00F03207981
:1026B000984201D2012010BD00F013F8002383706E
:1026C00000F008F801D1022010BDFFF780FF00F0F4
:1026D0007AFD2CE701F00701017094F890120129AE
:1026E000704701F0070228204243A0180A0603D5CC
:1026F000103001234370704700F5A870002242702B
:102700007047000000687149884200D0704780B56A
:102710006F48026842F4000202600022006800F480
:102720000000009000210098142000F0DDFDBDE8BD
:102730000240142000F0F5BD00F52671D0F8D40257
:1027400000F04ABE0B4628225343C218D0F8D402E8
:10275000D2F8642100F06ABE0B4628225343C21807
:10276000D0F8D402526A00F0A2BED0F8D40200F031
:1027700032BF10B50446A079022818BF00F0AEFFA2
:10278000D4F8D402012100F012FFD4F8D402BDE83D
:10279000104000F0E3BE10B50446D4F8D40200F0B7
:1027A00009FFA07A20B14B48016841F006010160A1
:1027B00010BDD0F8D40200F005BF10B5044646485D
:1027C0004249C0F8D442C4F8C00201600822022382
:1027D00000210271837141810173FFF73BFA08B157
:1027E00000F07CFFD4F8C00218230022002100F082
:1027F0007BFFD4F8C00258230022802100F074FF30
:10280000D4F8C002C0230022812100F06DFFD4F86B
:10281000C0024FF488730022012100F065FFD4F854
:10282000C0024FF480730022822100F05DFF00207F
:1028300010BD80B5D0F8C002FFF76FFABDE80240C6
:1028400050E010B51C461346D0F8C0022246FFF7F0
:1028500088FEBDE8104045E080B5D0F8C002FFF723
:10286000A8FEEBE780B5D0F8C002FFF7E9FEE5E788
:1028700080B5D0F8C002FFF716FFDFE7D0F8C0221E
:1028800001F07F0328204343D018090601D5807C3E
:10289000704790F85201704780B5D0F8C002FFF73A
:1028A00053FECBE780B5D0F8C002FFF7B0FEC5E716
:1028B00080B5D0F8C002FFF790FEBFE7D0F8C002A5
:1028C000FFF79DBE0548704700000000005C004017
:1028D0001C10024010ED00E0F00900208C0F0020D9
:1028E000704770470146002021B1022901D1012023
:1028F00070470220704700000020704740300021E0
:1029000081804FF43F42028000207047B0F84020A1
:1029100044F2FF0100F0A3BC00207047012120F821
:10292000401F0022028000238380002101820020BA
:10293000704700002DE9F04F0B4602461D7832F833
:102940002560DC7848F68F1100200E40032C0CD84F
:10295000DFE804F002080C0546F4007606E046F4D1
:10296000C06603E046F4806600E0012048F280047F
:10297000264322F8256048F68F7619780D4632F8FE
:10298000257037403943214322F825104BF68F75C7
:10299000197B93F8009000294CF2800748F6BF7E1F
:1029A00048F2C0087CD1D9884FF6FE7A0AEA010BBA
:1029B00059780029B2F850101FD0114401EB0911C9
:1029C00001F58069A9F800B0197832F821506D0638
:1029D00006D532F821502E4048EA060622F821603A
:1029E0001978DB78012B32F821300EEA03030EBF91
:1029F0001C4383F020031C43DBE0891801EB091121
:102A000001F58169A9F800B0B2F8501001EB020C91
:102A100019780CEB011C0CF20C4CBCF800E0CEF366
:102A2000090EACF800E019693F290BD34FEA511E9B
:102A300011F01F0F08BFAEF1010EBCF8001041EA03
:102A40008E2102E021B9BCF8001041F4004109E0F8
:102A50004FEA510EC90748BF0EF1010EBCF8001035
:102A600041EA8E21ACF80010197832F821C05FEAF3
:102A70004C4C06D532F821C006EA0C063E4322F83B
:102A80002160197831B911880D4085F440552C43E7
:102A9000148090E032F821301D4085F4005587E025
:102AA000D978022909D132F82910314041F4014185
:102AB00041F0800122F8291009E032F829A048F6F7
:102AC0008F6101EA0A0144EA010A22F829A0B2F85A
:102AD00050901978B3F808A0914409EB011101F561
:102AE00080694FF6FE7101EA0A0AA9F800A0B2F85F
:102AF000501093F80090114401EB091101F5816C1D
:102B000059894FF6FE7909EA0101ACF800105978AD
:102B100093F800C0002932F82C1023D1490405D5C0
:102B200032F82C1031400F4322F82C70197832F80B
:102B300021707F0606D532F821703E4048EA06062D
:102B400022F82160197832F82160354085F440552B
:102B5000254322F82150197832F821300EEA030378
:102B60001C4326E0490405D532F82C1031400F43B0
:102B700022F82C70197832F821707F0606D532F8C9
:102B800021703E4048EA060622F82160DE78197876
:102B9000012E32F821600EEA060618BF86F02006E4
:102BA00044EA060E22F821E0197832F821301D405F
:102BB0002C4322F82140BDE8F08F2DE9F041024678
:102BC00091F800C048780B7B4BF68F7E4CF2800466
:102BD00048F2800848F6BF7548F2C00648F68F777D
:102BE000ABB9002832F82C0008D0400636D532F8B0
:102BF0002C0007403E4322F82C602FE0400458D5BB
:102C000032F82C0007403C4322F82C4051E00028C9
:102C100032F82C002BD1400405D532F82C00384076
:102C2000044322F82C40087832F820305B0605D5A2
:102C300032F820303B40334322F82030087832F815
:102C400020301F403E4322F82060087832F82030C0
:102C50000EEA030348EA030E22F820E0087832F86F
:102C600020100D4048EA050822F820802AE04004A0
:102C700005D532F82C003840204322F82C00087883
:102C800032F820305B0605D532F820303B401E4339
:102C900022F82060087832F820301F403C4322F8A8
:102CA0002040087832F820301D4048EA050522F817
:102CB0002050087832F820100EEA010148EA010E8F
:102CC00022F820E00020BDE8F0812DE9F8430E460F
:102CD00005467278012A48F2800848F68F7140F064
:102CE0000A81B4693269A24238BF1446307B30B9D8
:102CF000F28800F042FA00F037FA3C80F2E096F8F1
:102D000003E03078376ABEF1020F034640F0CD8011
:102D1000BA4280F0BB8035F82300014041F4014104
:102D200041F0800125F82310381B306263083278A7
:102D30007178964635F82E905FEA496704F00100F5
:102D40004FEA541C4FD5C1B900F0FFF901F20C4114
:102D500000F0EEF908D314F01F0F08BFACF1010C1E
:102D6000088840EA8C2001E01CB9088840F4004043
:102D700001E000F0D1F908800AE0012908D1B5F896
:102D80005000401900EB021E0EF20C4EAEF800404F
:102D9000728900F0F2F900F0D1F932BF001B04464D
:102DA000002030627078D8B900F0DEF900F0BAF98E
:102DB00007D3600914F01F0F08BF401E00F0A6F9EA
:102DC0000CE024B9388840F40040388084E0600882
:102DD000E10748BF401C398841EA802139807BE007
:102DE000012879D15CE0C1B900F0AFF901F20441EA
:102DF00000F09EF908D314F01F0F08BFACF1010CCE
:102E0000088840EA8C2001E01CB9088840F40040A2
:102E100001E000F081F9088009E0012907D1B5F847
:102E20005000401900EB021000F204400480328987
:102E300000F0A3F900F082F932BF001B0446002025
:102E400030627078D8B900F09CF900F06BF907D3C4
:102E5000600914F01F0F08BF401E00F057F90CE086
:102E600024B9388840F4004038802CE06008E1073D
:102E700048BF401C398841EA8021398023E001287D
:102E800021D1B5F850004719307817E035F82310F4
:102E900048F68F60014048EA010125F823103C46BE
:102EA000B5F850004719307811E0391B316235F818
:102EB00023104A06B5F8501008D54F1907EB001734
:102EC00007F20C473C80A3B2728907E04F1907EB69
:102ED000001707F204473C80A3B232897169284683
:102EE00000F0C2F9317835F8212048F6BF70024071
:102EF00082F0300225E0307B002834D1B16930699E
:102F0000884232BF091A08460021B16100F023F956
:102F10003F283A88C2F309023A8019D3410910F0D8
:102F20001F0F08BF491E388840EA812040F4004046
:102F30003880317835F821204BF68F70024082F4CA
:102F4000405248EA020825F821800020BDE8F283BB
:102F500008B93888EAE74108C00748BF491C3888E3
:102F600040EA8120E4E7F078022867D122BBB5F877
:102F700050203078521902EB001202F204421388FA
:102F8000C3F30903138030693F2808D3430910F0C5
:102F90001F0F08BF5B1E108840EA832001E018B9AC
:102FA000108840F4004006E04308C00748BF5B1C9F
:102FB000108840EA832010807078F8B900F0E1F8BA
:102FC0003A88C2F309023A8030693F2808D342099F
:102FD00010F01F0F08BF521E388840EA822001E01F
:102FE00018B9388840F4004006E04208C00748BFDE
:102FF000521C388840EA8220388007E0012805D139
:10300000B5F85000326900F0BEF83A80F069002847
:103010008FD0307835F8202044F2400303EA0204D0
:103020009C4218BF1A4284D135F82020114041F447
:10303000004141F0C00125F820107AE7012863D152
:10304000B1693069884232BF091A08460021B1616E
:10305000440800F00101430972BBB5F850203778ED
:10306000521902EB071202F204423F28B2F800E0C4
:10307000CEF3090EA2F800E00CD39C4610F01F0F0F
:1030800008BFACF1010CB2F800E04EEA8C2747F41F
:10309000004E0FE030B9B2F800C04CF4004CA2F87A
:1030A00000C009E0A44609B10CF1010CB2F800E03F
:1030B0004EEA8C2EA2F800E0727802BBB5F85020E0
:1030C0005719327807EB021707F20C473F28B7F879
:1030D00000C0CCF3090CA7F800C007D310F01F0FF5
:1030E00008BF5B1E388840EA83201FE708B9FFF756
:1030F00030BF01B1641C388840EA842018E7012AF7
:103100009BD100F028F813E701201FE7398841EA36
:10311000802141F40041704700B15B1C088840EAFF
:10312000832070473F2C3988C1F3090139807047EB
:103130003F2C0A88C2F309020A807047706931691E
:1031400020447061306A81427047B5F850104919C7
:1031500001EB02117047B5F850104F19317807EBA9
:10316000011707F20C477047B5F85000471930783F
:1031700007EB001707F2044770477169A3B22846AE
:1031800072E0B5F850004719307807EB001707F2E6
:103190000C47704710B50A78497830F8224000296A
:1031A00048F2800305D048F6BF710C4084F010044B
:1031B00004E04BF68F710C4084F48054234320F8D4
:1031C0002230002010BD30B50A7B002A36D14A7863
:1031D0000C78002A30F8242048F2800348F68F75D6
:1031E00016D0520608D530F82420154045F4004585
:1031F00045F0C00520F82450CA78012A1ED00A786C
:1032000030F8224048F6BF710C4084F0200412E0F0
:10321000520408D530F82420154045F4404545F0C7
:10322000800520F824500A7830F822404BF68F7140
:103230000C4084F44054234320F82230002030BD59
:1032400011B98021A0F84C10002070470020704771
:1032500000207047B0F844007047002070470A40D3
:10326000A0F840200020704710B500EB42005B1C26
:1032700000F580605B0807E00A784C7842EA042297
:10328000891C20F8042B5B1EF6D110BD10B500EB95
:10329000420000F580605A0806E030F8044B0C70DC
:1032A000240A4C70891C521EF7D1DA0744BF0088EB
:1032B000087010BD0901020002D4284881547047EB
:1032C000274B02F00F021A4402F8041C7047254BEA
:1032D00019684FF6FF020002114000F4E060084355
:1032E000214908431860704770B51E4B1C68C4F331
:1032F00002230124C3F10705052D2EBF0F2504FA73
:1033000005F56D1E1E1D072E34BF0023DB1E294050
:10331000994004FA03F3BDE870405B1E1A40114364
:10332000C8E7010007D4012200F01F010F4B8A40BB
:10333000400943F820207047401EB0F1807F01D340
:10334000012070470A490B4A48600023F0201070A2
:103350008B600720086000207047000000E400E058
:1033600018ED00E00CED00E00000FA0500E100E0DF
:1033700010E000E023ED00E038B508B9022032BDCE
:1033800000F52774A3690BB10025A56101B1616146
:10339000012121700270FFF710FA002032BD0246B1
:1033A000002011B1C2F8B41270470220704780B5F6
:1033B000FFF73FFA002002BD10B5D0F8B422022476
:1033C0001AB11268904700B90024204610BD80B59C
:1033D000D0F8B42253680AE138B5044604F52A75DA
:1033E000284600F088FB04F5257001210160428B1E
:1033F000017D426011F01F0003D002280BD005D3DD
:103400000EE02946204600F089F90DE029462046C5
:1034100000F0BAFA08E02946204600F0DBFA03E0A3
:1034200001F0800100F040F8002032BD38B50446BC
:1034300010460A0004F5257329D1196803291ED105
:1034400004F5B0714A680D68AA420BD2AD1A0D603E
:10345000954238BF2A46014692B2204600F0A7FBAB
:10346000002032BD196A086928B1187A032802D1F0
:10347000096920468847204600F0A1FBF0E70529AE
:10348000EED100201860002100F00EF8E8E71A6A7B
:10349000906930B1187A032803D192692046904789
:1034A000DEE7022032BD80212046FFF7DBB938B5C8
:1034B00004460800134604F5257543D12868022800
:1034C00033D1226A616A914207D2521A22621946A6
:1034D00092B2204600F059FB11E0E269B2FBF1F034
:1034E00001FB102090B98A4210D3686882420DD245
:1034F00000220021204600F048FB002068600023E5
:10350000002200212046FFF7D3F914E0296AC86899
:1035100028B1287A032802D1C96820468847FFF7D6
:10352000C2FF204600F052FB05E0042818BF002827
:1035300001D1FFF7B8FF287B012804BF00212973C0
:10354000002032BD2A6A506930B1287A032803D19D
:10355000526920469047F3E7022032BD38B5044651
:10356000402300220021FFF76CF904F5AC70012123
:1035700040220160C2604023002280212046FFF7E4
:1035800060F90120402104F52572A061616210728A
:103590000021116061600025506A156128B1126A2E
:1035A00061685368C9B220469847002032BD017453
:1035B0000020704700F527700422017841700270E6
:1035C0000020704700F527700178042904BF417876
:1035D00001700020704780B500F527710A78032A32
:1035E00003D18969C96901B18847002002BD9847A4
:1035F000002002BD70B500F0F1FA00F0F5FA00F01D
:103600002BF800F003FB00F03FFB00F067FB104CD1
:10361000104D0122A91C204600F016FC30A6287887
:103620000028FCD068780028F9D0002129700020FB
:1036300068703246AB783221281D00F08DFE281DBF
:10364000FDF720FD82B2291D204600F0E4FBE6E7ED
:10365000AC1300200000002018B593B0282109A861
:1036600000F09CFE1421684600F098FE05A8002199
:1036700000220023002480E81E00012109910B9202
:103680004FF480310A911191012302224FF4E0118D
:103690000D931092129109A800F084FE08B100F079
:1036A0001DF8022101910F204FF4A06100900391B9
:1036B0004FF4E062049202940221684600F0FCFF9D
:1036C00008B100F00BF810210591089405A801F04D
:1036D000C9F808B100F002F814B010BD72B6FEE7E8
:1036E00025630D0A0000000030B528240D0605D51D
:1036F00001F0070161430844103003E061430844CE
:1037000000F5A8701AB900210173C38004E0038199
:1037100001211B0C01734381002030BD2DE9FC41C8
:103720000E460546307810F0600005F5277708D082
:10373000202818BF402824D1BA69936828469847A2
:10374000ACE0717809291CD8DFE811F0FD00120106
:1037500088000C0188008D000A008800E800AB009A
:103760000022ADF800207088010A012970D00229DA
:1037700061D003292CD0062922D0072904BF287C38
:1037800000286BD1B9690A6B6846904707214170E0
:10379000BDF8001081B1F188002910D0BDF80010EB
:1037A000F288914288BF1146ADF800100146BDF87D
:1037B0000020284600F0E1F9F08800286ED19FE053
:1037C000287C00284AD1B9694A6B68469047DFE7F0
:1037D000C0B2052842D8DFE800F0272019120B03F9
:1037E00078698269002A39D0287C69469047CFE7FA
:1037F0007869426992B3287C69469047C8E778693E
:1038000002695AB3287C69469047C1E77869C26863
:1038100022B3287C69469047BAE778698268EAB1A2
:10382000287C69469047B3E778694268B2B1287C42
:1038300069469047ACE7287CB9690028684604D1FE
:10384000896A884702224270A2E7C96A8847F9E775
:103850007A69287C13686946984799E73146284673
:1038600000F05DF91AE0B088002804BFF088002855
:10387000F4D17488802CF1D23878032804F07F04C6
:10388000ECD0BC7021462846FFF706F8284600F029
:1038900096F9002C0CBF0120022038700020BDE8F2
:1038A000F681DFF8E080708888F8000098F8004022
:1038B00021460229D2DA3878022818D0032823D1E9
:1038C00034B90220387069602846FFF780FD17E0A0
:1038D00069688C4214D0C9B22846FFF778FD6C6045
:1038E00021462846FFF768FD022809D1B6E73CB11A
:1038F0006C60032038702846FFF75EFD0228ADD0CB
:10390000284600F05CF9C9E73146284600F007F97F
:1039100098F800102846FFF75AFDBFE7F088012805
:103920009CD13978491E012907D9891E96D10122D7
:10393000291D284600F021F9B0E70020A8600122E7
:1039400005F10801F5E73878401E022886D8F2888C
:10395000022A83D1B868012100B10321E96005F191
:103960000C01E6E77088012898D10121B960C7E70A
:103970003878401E0228ECD87288012A8ED10020A7
:10398000B860BDE7F813002038B50D460446287826
:1039900010F060001CBF2028402816D104F52772C3
:1039A0001078401E022810D82B79022B0DDA92696C
:1039B0009368204698470146E888002808BF0029F8
:1039C00006D1204600F0FBF802E0204600F0A7F800
:1039D000002032BDF8B50A780446087912F0600577
:1039E00004F5277308D0202D18BF402D66D19A69A1
:1039F00093682046984764E002F06002202A05D1CF
:103A00009A6993682046BDE8F44018474A7882B323
:103A1000012A11D0032A51D11B78022B12D0032B7B
:103A20004CD14A880ABB002818BF80281DD0C988FD
:103A3000D9B900F05CF818E01A78022A02D0032AFB
:103A40000AD03BE0002818BF802837D000F04FF89C
:103A5000802100F04DF834E04A8892BB10F07F01DD
:103A600003D001462046FEF703FF204600F0A7F8EA
:103A700027E0142600F07F021B787243A718022B60
:103A800007F5AA7500F0800202D0032B0FD015E0D5
:103A9000002818BF802811D10AB107F114050020B1
:103AA000286002222946204600F067F809E000F06D
:103AB0000F035E43A31932B19A696AB9204600F038
:103AC0002EF80020F2BDD3F85821002AF6D00028A5
:103AD00018BF802803D1E2E707F11405F7E7014694
:103AE0002046FEF7CBFE0028DAD00120D8E70146B9
:103AF0002046FEF7B7BE0A7802704B7843708A788A
:103B0000CB7802EB032242804B790A7902EB032245
:103B100082808A79C97902EB0122C280704710B590
:103B200004468021FEF79EFE2046BDE8104000219D
:103B3000FEF798BE00280B4600D1704770B50146CD
:103B4000002400E0641C11F8015B002DFAD124066A
:103B5000E40DA41C14801178197003225A700222FB
:103B600007E010F8011BD4B2521C1955D6B2521CF2
:103B70009D5501780029F4D170BD80B5134602220D
:103B8000C0F89422C361036201E080B513460A467F
:103B90000021FEF787FE002002BD80B513460322F8
:103BA000C0F8942200F5AE721360536001E080B556
:103BB00013460A460021FEF77BFE002002BD80B5B9
:103BC0000421C0F8941200230022E1E780B505210A
:103BD000C0F8941200230022ECE70000014840687E
:103BE000704700BF3800002080B50748016841F0E9
:103BF000100101600320FFF76AFB0F2000F0A6FE12
:103C000000F0C4FE002002BD0020024018B585B0BF
:103C10001022002101A800F0DBFE1948194C0168B0
:103C200041F010010160026802F010020092009958
:103C3000026842F020020260036803F02003009350
:103C40000099026842F0040202600022006800F05D
:103C5000040000904FF400510098204600F08BFFC4
:103C60004FF400510191012202920021039102229E
:103C7000049201A9204600F0B5FE06B010BD00BFB9
:103C8000181002400010014010B5104C10490022DD
:103C90002046FFF771FB08B1FFF720FD0D492046D4
:103CA000FFF77DFB08B1FFF719FD0B49204601F036
:103CB000ADF808B1FFF712FD2046FFF778FB18B109
:103CC000BDE81040FFF70ABD10BD00BFC80C0020C2
:103CD00068010020540000205801002080B52A48C7
:103CE0002A4901604FF4E13200230C2142608360D5
:103CF000C360036141618361C36100F04DF818B195
:103D0000BDE80140FFF7EABC01BD18B585B0044627
:103D100010220021684600F05BFE21681B488142AA
:103D200030D11B481B4C016841F48041016002689E
:103D300002F4804204920499026842F00402026094
:103D40004FF40071006800F004000490022204980F
:103D500000910192032103912046694600F042FE42
:103D60004FF4806000210090019102912046694645
:103D700000F038FE002200212520FFF7B5FA2520AB
:103D8000FFF7CFFA06B010BDAC1300200038014099
:103D9000181002400008014038B5040001D101208C
:103DA00032BD00F01BF808B900F01CF800F01FF855
:103DB00000F027F8FFE7416100F001F832BD20680C
:103DC000C16841F40051C160002068602021697021
:103DD0002020A870002161630020704704F1400595
:103DE00068787047002129702046FFF78EBF242095
:103DF00068702068C16821F40051C160204600F05D
:103E000069BA2068016921F4904101612068416923
:103E100021F02A01704790F84130202B12D109B1CE
:103E2000130001D10120704701628284C284002105
:103E30004164212280F841200068C16841F080017E
:103E400000F0A6B90220704710B500F130039C7C49
:103E5000202C0AD109B1140001D1012010BD002489
:103E60001C60BDE8104000F07BB9022010BD216845
:103E700001F1140252E8001F206800F1140321F040
:103E8000400143E8001000287047F8B50446256853
:103E90002A6828460146C6684B6912F00F0F02F0E7
:103EA000200106F0200007D1002918BF00285DD0AE
:103EB0002046BDE8F240A5E1DF0702D416F4907F6A
:103EC00054D0D50705D5F60503D5656C45F0010539
:103ED0006564550705D5DE0703D5656C45F0020519
:103EE0006564950705D5DE0703D5656C45F00405C7
:103EF0006564120706D508B9DA0703D5636C43F089
:103F000008036364626C002A2FD000291EBF0028BA
:103F1000204600F077F920684069616C0A0701D4F7
:103F200040061DD5204600F044F920684169480646
:103F300011D5FFF79CFFFCD1E06B60B10FF2B5210A
:103F40004163E06B00F0AFFF00280ED0E06B416BE7
:103F5000BDE8F44008472046BDE8F24000F0FEBF4F
:103F6000204600F0FBFF00206064F1BD206B0128BB
:103F700004F1410340F09180D00600D5F10640F1F4
:103F80008C8000220092296800912268506800907D
:103F9000009920684269500642D5E16B0868406884
:103FA00080B20028E1D0A28D9042DEDAE0858869F7
:103FB00020282DD0216801F10C0050E8001F226854
:103FC00002F10C0521F4807145E800100028F1D1C0
:103FD00000F0A2F8490800F11405490045E8001076
:103FE0000028F5D100F098F800F1140521F0400107
:103FF00045E800100028F5D12020587000212163E9
:1040000000F090F800F0C7F8FAD1E06B00F026FF5E
:1040100002206063A18DE08D091A89B2204638E044
:10402000A08DE18D411AE08D00281CBF88B20028C8
:1040300071D02246106800F10C0454E8004F00F1E2
:104040000C0624F4907446E800400028F2D1106871
:1040500000F1140454E8004F640800F114066400F1
:1040600046E800400028F2D1202058700023136356
:10407000106800F10C0353E8003F00F10C0523F039
:10408000100345E800300028F2D10220506389B2C5
:104090001046BDE8F44000F062BF10062BD5310693
:1040A00029D51878212836D1A068B0F5805F04BFE3
:1040B0002069002809D1206A01882A46C1F3080135
:1040C0005160206A811C216205E0206A411C216246
:1040D000226800785060E08C401EE08480B2D0B945
:1040E0002068C16821F08001C1602068C16841F08A
:1040F0004001C160F1BD50060DD571060BD52846B3
:10410000C16821F04001C160204620211970BDE83E
:10411000F24000F035BFF1BD206800F1140151E814
:10412000001F7047206800F10C0151E8001F00F1EA
:104130000C037047026802F10C0151E8002F03687C
:1041400003F10C047047016801F1140252E8002FDA
:10415000520801F11404520044E80021002970477C
:1041600081628285C28500214164222280F842203A
:10417000016921B10168CA6842F48072CA600168AD
:104180004A6942F001024A610068C16841F02001B9
:10419000C1600020704721F0100143E800100028A2
:1041A0007047016801F10C0252E8002F01F10C0484
:1041B000704710B5FFF7F5FF22F4907200F016F883
:1041C000F8D1FFF7C0FFFCD1016B012906D1FFF741
:1041D000B1FF22F0100200F009F8F8D1202180F898
:1041E00042100022026310BD22F4807244E80021D4
:1041F00000297047406A0021C1850022C28400F076
:10420000ADBE00001CB590F84210222952D1816841
:10421000826AB1F5805F0AD1016969B9036859689A
:10422000C1F308011180826A911C81620FE00029AC
:1042300004BF0169002902D10368596803E00168DD
:10424000496801F07F011170816A4A1C8262C18D48
:10425000491EC18589B259BB0168CA6822F0200293
:10426000CA600168CA6822F48072CA6001684A693B
:10427000520852004A61202180F842100022426315
:10428000016B012912D1026300F016F8026811686F
:10429000CB0607D500240094126800920368596881
:1042A0000091009A818D00F05AFE01E000F075FE49
:1042B000002016BD022016BD016801F10C0252E873
:1042C000002F01F10C0422F0100244E80021002923
:1042D000F2D1704710B5044622681169E06821F4F4
:1042E000405101431161D3681949A0680B4021690D
:1042F000034360690B430343D3605169A06921F410
:1043000040710143516113498A4202D100F07DFAA4
:1043100001E000F072FA6268192148439200B0FB94
:10432000F2F16423B1FBF3F26FF0630000FB0211C2
:1043300009013231B1FBF3F000F0F00101EB0211A1
:10434000226800F00F004018906010BD00000000CF
:10435000F3E9FFFF0038014008B438B585B009AC77
:1043600000250494039500290EBF01950190491E74
:104370000291009504AB01A9074878441A30FBF775
:10438000B8FE019901B10D70002858BF039806B01E
:1043900030BC5DF808FB00BF93CCFFFF002200F0AB
:1043A00017BE00002DE9F843040016D02078DFF88E
:1043B0007064C10713D5706800F00C00042807D0A2
:1043C000706800F00C00082841D17068C1033ED528
:1043D0003068810303D56068002800F0648120788C
:1043E000DFF84C74810719D5706810F00C0F07D0F6
:1043F000706800F00C00082861D17068C1035ED4B9
:104400003068810703D52069012840F04C8131686C
:10441000606921F0F80141EAC001316021780807A4
:1044200040F18180A069DFF80C14002800F0A6801C
:1044300001220A60FFF7D2FB0546706A810763D448
:10444000FFF7CCFB401B0228F7D903202EE1606860
:10445000B0F5803F04D1306840F48030306014E023
:1044600008B930680AE0B0F5A02F306806D140F4F2
:1044700080203060316841F4803105E020F48030E4
:104480003060316821F480213160606858B1FFF7F5
:10449000A5FB054630688103A1D4FFF79FFB401BB5
:1044A0006528F7D3D1E7FFF799FB0546306881030C
:1044B00095D5FFF793FB401B6528F7D3C5E7206927
:1044C000A8B101213960FFF789FB054630688107F3
:1044D00005D4FFF783FB401B0228F7D9B5E7306806
:1044E000616920F0F80040EAC100306096E738606A
:1044F000FFF774FB0546316888078FD5FFF76EFB21
:10450000401B0228F7D9A0E7DFF818030168C908A3
:104510004FF47A72B1FBF2F2009200BF0098411E94
:1045200000280091F9D1207841076ED5F069002567
:10453000C10009D4F06940F08050F0610125F069B4
:1045400000F0805000900098DFF8EC82D8F800006E
:10455000C10520D4D8F8000040F48070C8F80000ED
:10456000FFF73CFB8146D8F80000C10513D4FFF7E4
:1045700035FBA0EB09006528F5D366E70860FFF777
:104580002DFB0546706A8107CDD5FFF727FB401B41
:104590000228F7D959E7E068012808D008B9306A3D
:1045A00009E00528306A06D140F004003062306A24
:1045B00040F0010005E0400840003062306A20F021
:1045C0000400306241F28938E06860B1FFF706FB11
:1045D0008146306A810713D4FFF700FBA0EB090086
:1045E0004045F6D331E7FFF7F9FA8146306A810793
:1045F00006D5FFF7F3FAA0EB09004045F6D324E710
:104600001DB1F06920F08050F061E06900284CD0C5
:10461000716801F00C01082938D002282AD100F075
:1046200047F805463068810105D5FFF7D7FA401BEA
:104630000228F7D909E7206AB0F5803F05D17168F3
:10464000A06821F40031014371607268206A616AD8
:1046500022F4741202430A437260012000F029F828
:1046600004463068810120D4FFF7B8FA001B022805
:10467000F7D9EAE600F01CF804463068810114D549
:10468000FFF7ACFA001B0228F7D9DEE601280AD0B2
:104690007068226A00F48031914202BF00F4701009
:1046A000616A884201D0012000E00020BDE8F28369
:1046B00000203866FFF792BA2DE9F04104008846E1
:1046C0004ED05E4E00F077F802D200F06FF847D17E
:1046D0002068534D810712D5400703D5696841F41E
:1046E000E06169602078010703D5686840F4605094
:1046F00068606968A06821F0F00101436960217871
:10470000C80725D56068012802D129688A0303E01B
:104710000228296802D18A0102D421E08A071FD524
:104720006968890840EA81006860FFF757FA074620
:104730006868616800F00C00B0EB810F08D0FFF7EB
:104740004DFAC01B41F289318842F1D303202BE09E
:10475000306800F00700804504D200F027F801D04F
:10476000012021E02078410705D56A68E06822F43D
:10477000E06202436A602178080706D5696820690B
:1047800021F4605141EAC001696000F019F86A68DB
:104790002B49244BC2F30312895CC840186023489C
:1047A000006800F0D3F80020BDE8F0813168C90846
:1047B00048EAC1013160306800F0070040457047A9
:1047C000204919480A6802F00C03082B00D07047F2
:1047D00010B500BF1EA4C2F38343D203E35C08D527
:1047E000096858431EA3C1F340415A5CB0FBF2F084
:1047F00010BD18461449484310BD0A48114A0068C4
:1048000013681249C3F3022206E006480D4A006805
:1048100013680E49C3F3C222895CC8407047000088
:10482000001002404400002000127A0040000020E6
:1048300000004242800442420070004000200240DA
:10484000945200080410024000093D00B4520008D0
:1048500002030405060708090A0B0C0D0E0F1010C1
:10486000010200002DE9FC410646354D3078C107B4
:1048700050D5A8690024C10009D4A86940F080502F
:10488000A8610124A86900F08050009000982D4F85
:104890003868C10511D4386840F480703860FFF77B
:1048A0009DF980463868C10507D4FFF797F9A0EB5A
:1048B00008006528F6D303203FE0E86910F4407053
:1048C0001EBF716801F44071884218D01E49E86922
:1048D00001220A60002320F440700B60E861C007E9
:1048E0000DD5FFF77BF90746E869810707D4FFF785
:1048F00075F9C01B41F289318842F5D3DBE7EA69DB
:10490000706822F440720243EA611CB1A86920F089
:104910008050A8613078810705D52A68B06822F4F4
:10492000404202432A603178C80605D52968F068FC
:1049300021F48001014329600020BDE8F6810000D8
:1049400004100240007000404004424238B50D4D52
:104950000D4B2A7804464FF47A711868B1FBF2F2D5
:10496000B0FBF2F0FEF7E8FC50B9102C08D20022A0
:1049700021464FF0FF30FEF7B7FCAC60002032BD9F
:10498000012032BD38000020440000200E4881B0D4
:10499000016841F001010160026802F00102009229
:1049A0000099426842F080524260406800F08050B6
:1049B000009000980548016821F0E06141F0007125
:1049C000016001B0704700BF1810024004000140B0
:1049D00010B5044610460A460146204600F012FB78
:1049E000204610BD2DE9F8474FF0000E0024684A1C
:1049F000684BDFF8A4814FF00F0982460DE017687D
:104A00003840106007E0C2F804C04D68ED03F6D5E9
:104A10001068074317600EF1010E0F6837FA0EF0A9
:104A200000F0A780012000FA0EFC0CEA070767459A
:104A3000F1D1486838B301281AD002281DD00328C4
:104A40002ED0112816D012281AD0544DA8421CBFBF
:104A5000534DA84217D0534DA8421CBF524DA842F7
:104A600011D0524DA8421CBF514DA8420BD018E0A6
:104A7000CC6816E0CC68241D13E0CC68083410E044
:104A8000CC680C340DE0886808B9042409E00128DA
:104A900019BF0824CAF814C00824CAF810C000E0DE
:104AA0000024B7F5807F03D250464FEA8E0C05E014
:104AB000AEF108050AF104004FEA850C056809FA11
:104AC0000CF6B54304FA0CF646EA050CC0F800C033
:104AD0004868C0009FD5D8F8000040F00100C8F831
:104AE0000000D8F8005005F0010500954FEA8E054A
:104AF00000984FEA9E0053F8206005F00C0C09FA6C
:104B00000CF526EA05052B4EB24508BF002609D054
:104B1000294EB24508BF012604D0284EB2450CBF2D
:104B20000226032606FA0CF646EA050C43F820C0D6
:104B3000F8434D68D2F808C0ED024CBF47EA0C0CB0
:104B400000EA0C0CC2F808C04D68D2F80CC0AD02E7
:104B50004CBF47EA0C0C00EA0C0CC2F80CC04D68C4
:104B6000D2F804C0AD034CBF47EA0C0C00EA0C0CB1
:104B700049E7BDE8F18702B9090401617047C268DD
:104B800001EA0203914341EA0341016170470000D9
:104B900000040140080001401810024000001110FC
:104BA000000012100000211000002210000031103F
:104BB0000000321000080140000C014000100140CC
:104BC000F8B505460026287C40B94FF4007300F084
:104BD0003CF80122EA624FF4007305E0402300F044
:104BE00034F80120E8624023022201212846FDF723
:104BF00028FE0120C5F86C010823032282212846E3
:104C0000FDF71FFE0120286405F52E774FF407708D
:104C1000FDF758FE3860040008BF012613D07868FD
:104C20000168884704F5017000220261002141619A
:104C30000268287C00280CBF4FF400734023012138
:104C40002846FDF735FE3046F2BD02228121284676
:104C5000FDF7F7BD10B504468121FDF7FDFD0022EB
:104C6000E26201212046FDF7F7FD0020C4F86C0147
:104C700082212046FDF7F0FD0021216404F52E7409
:104C8000206838B16068416888472068FDF728FED1
:104C900000202060002010BDF8B5044604F52773FD
:104CA0000D46DE6900218DF80010ADF802100027D6
:104CB000297811F0600022D020283AD1EA88C2B1C8
:104CC000687809060AD51B6AD3F808C03146E04760
:104CD000EA8831462046FEF750FF2FE006F50071C6
:104CE0000870E88848703146EA882046FEF755FF8C
:104CF00024E01B6A68789C682946A0471EE0687813
:104D000020B10A2809D00B2810D012E01978032905
:104D10000FD102220DF1020104E01878032808D116
:104D2000012269462046FEF728FF07E0187803288D
:104D300004D029462046FEF7F2FE02273846F2BD8F
:104D4000F8B5044604F52E7002688568DAB10E469F
:104D5000142070432718F86980B128235E43AB19EB
:104D60001B6AB0FBF3F503FB150038B90026FE61A2
:104D7000002300222046FDF795FD02E00023C2F843
:104D800014320020F2BD0220F2BD70B500F52E7481
:104D9000256805F50176FDF791FDB060206838B112
:104DA00062683068D36805F503719847002070BDCC
:104DB000022070BD10B500F52E7043680168002B0D
:104DC0001EBF01F500742078FF2804D062789B682C
:104DD0009847FF202070002010BD43210180074824
:104DE00070474321018006487047432101800548F0
:104DF00070470A210180044870470000D00000205D
:104E00008C000020140100204800002002460220EF
:104E100011B1C2F8BC1200207047D0F8B80200F5FA
:104E200002700160826000207047D0F8B802C0F8BC
:104E300004120020704780B5D0F8B81261B1D1F8E3
:104E40000422017C00290CBF4FF400734023012190
:104E5000FDF72EFD002002BD022002BD10B590F826
:104E60002110022900F1380206D00423136000212A
:104E700080F82010012010BD01680B6823F00E039C
:104E80000B60012301680C68640864000C60916881
:104E900052688B405360012180F82110002280F875
:104EA0002020002010BD38B590F821200024022ACF
:104EB00000F1340103D00420486001243EE0026880
:104EC000136823F00E0313600268DFF8743015686E
:104ED0006D086D00156002689A4208BF012222D059
:104EE000DFF860309A4208BF10221CD0DFF858303B
:104EF0009A4208BF4FF4807215D0DFF850309A42C2
:104F000008BF4FF480520ED0DFF844309A4208BFF9
:104F10004FF4803207D0DFF83C309A420CBF4FF498
:104F200080124FF08072DFF830301A60012280F872
:104F3000212080F82040096801B18847204632BD11
:104F4000080002401C0002403000024044000240C1
:104F5000580002406C000240040002407047704755
:104F6000FEE7FEE7FEE7FEE7FEE7704770477047A3
:104F700000F07CB80F48FCF7E1BE0F48FEF785BF94
:104F800000680E49884207D10D48012202704FF493
:104F900000510C48FFF7F3BD70470068074988428D
:104FA00006D109480949012202700348FEF74CBFA7
:104FB00070470000F0090020AC13002000380140C9
:104FC000010000200010014000000020020000202D
:104FD00000B500BF130096469446103928BFA0E8DC
:104FE0000C50FAD85FEA417C28BF0CC048BF40F89B
:104FF000042BC90728BF20F8022B48BF00F8012B5B
:1050000000BD000062F30F2262F31F42401810F04F
:10501000030308D0C91A1FD3DB0748BF00F8012DCE
:1050200028BF20F8022D130030B41446154610395D
:1050300028BF20E93C00FAD8490728BF20E90C0026
:1050400048BF40F8042D890028BF20F8022D48BF32
:1050500000F8012D30BC7047C91818BF00F8012DA9
:10506000CB0728BF00F8012D7047000002494A68AD
:10507000087882184A6070473800002012200880A3
:105080001A48704704200880194870472DE91040DD
:1050900000F028F827A004E02DE9104000F022F8E5
:1050A0002AA02146FEF746FD204610BD38B51A203D
:1050B000088010494C68086889680F4D081809D0A5
:1050C0000822A91C00F022F8042205F11201204652
:1050D00000F01CF8284632BD2DE9104000F002F81F
:1050E0001FA0DEE70A46054C70470000840100203F
:1050F00098010020E8F7FF1F9C010020AC11002060
:105100002DE91040FFF7EEFF18A0CAE730B50023E5
:105110000CE0040F0A2C2CBF3734303401F8134054
:1051200001EB4305002400016C705B1C9342F0DB33
:1051300030BD000053544D3332205669727475618E
:105140006C20436F6D506F727400000053544D69B2
:1051500063726F656C656374726F6E696373000070
:1051600043444320436F6E66696700004344432015
:10517000496E7465726661636500000038B50E4C57
:105180000E4D002205F580612046FFF746FE2946B8
:105190002046FFF74AFE002032BD00207047002065
:1051A000704710B50146044C2046FFF73EFE2046EE
:1051B000FFF741FE002010BDC80C0020F0010020C8
:1051C00030B4002512E050F8042BD30744BF4A4402
:1051D000521E091F042942F8045BFAD213468C07B9
:1051E00044BF15809B1CC90748BF1D7050F8041BA5
:1051F0000029E8D130BC704710B50749794418310F
:10520000064C7C44163404E00A68081D11448847A3
:105210000146A142F8D110BD0800000024000000A2
:10522000A1FFFFFF0C120000F001002000000000B1
:1052300067BDFFFF18010000D20100000000002040
:1052400000F00DF8002801D0FFF7D6FFAFF3008083
:105250000020AFF30080FEF7CDF900F002F8012046
:10526000704700F001B8000007463846FCF7E8FC3C
:10527000FBE700000548014603B4684680F309884F
:10528000AFF30080AFF30080FFF7DAFFA5EDF5FE86
:10529000704700000000000000000000010203044D
:1052A0000607080901488047014800479152000855
:1052B000755200080000000001020304FFF7FEBF62
:1052C000FFF7FEBFFFF7FEBFFFF7FEBFFFF7FEBF12
:1052D000FFF7FEBFFFF7FEBFFFF7FEBFFFF7FEBF02
:1052E000FFF7FEBFFFF7FEBFFFF7FEBFFFF7FEBFF2
:1052F000FFF7FEBFFFF7FEBFFFF7FEBFFFF7FEBFE2
:10530000FFF7FEBFFFF7FEBFFFF7FEBFFFF7FEBFD1
:10531000FFF7FEBFFFF7FEBFFFF7FEBFFFF7FEBFC1
:10532000FFF7FEBFFFF7FEBFFFF7FEBFFFF7FEBFB1
:10533000FFF7FEBFFFF7FEBFFFF7FEBFFFF7FEBFA1
:10534000FFF7FEBFFFF7FEBFFFF7FEBFF00124002F
:1053500001000161372210081005127A000A0600C8
:10536000020B2240181007C14B0008554C00089949
:1053700004211F1003B54D00084104438B4D1061FB
:105380000112E31012DB0412EB0412F304100909FA
:10539000024300020100C03209046112020B101E18
:1053A0000524001001052401000104240202052443
:1053B0000600010705820308001009040100020A23
:1053C0004E1002070501027B200107058107F22824
:1053D0000044224007228107200100090744F22CE3
:1053E000044410037D5100089B04129F0412A3047F
:1053F00010037D5000088504129904128D0412AD2B
:105400000412D90412011C121243100602020040B9
:10541000830440577917020345F40409040309047F
:105420001A039CF00207521300080452FF01F20015
:055430001A1403000046
:040000050800527528
:00000001FF
